:100000000C94B4000C940E010C943B010C944C1D08
:100010000C94701D0C94941D0C94DC000C94BC1278
:100020000C94DC000C94DC000C94DC000C94DC00E0
:100030000C94DC000C94DC000C94DC000C94DC00D0
:100040000C9468010C94DC000C9463070C94A607D4
:100050000C94DC000C94DC000C94DC000C94DC00B0
:100060000C94DC000C94DC0002000000070002018C
:10007000000003040600000000000000000102046C
:10008000081020408001020408102001020408101A
:100090002004040404040404040202020202020311
:1000A00003030303030000000023002600290000CF
:1000B000000000250028002B00000000002400277D
:1000C000002A0000C201000100110011000C000014
:1000D000E100000A0025002500210000960000191B
:1000E00000390039003600127A00001F0046004631
:1000F0000044008070000022004D004D004A0000C6
:100100004B00003600750075007200403800004A50
:10011000009C009C009900802500007200EC00EC1F
:1001200000E900C0120000E900DA01DA01D701603D
:10013000090000D701B603B603B303B0040000B34F
:10014000036E076E076B07580200006E07DC0EDCBB
:100150000ED80E2C010000DC0EC11DC11DBE1D00FD
:100160008509660ACD21D42111241FBECFEFD8E026
:10017000DEBFCDBF12E0A0E0B1E0E8E3FDE402C0E5
:1001800005900D92A239B107D9F713E0A2E9B2E0C8
:1001900001C01D92A93DB107E1F711E0C6E6D1E02B
:1001A00004C02297FE010E94A924C036D107C9F7D6
:1001B0000E94B11B0C948F260C9400008230E8F44E
:1001C000E82FF0E0EE0FFF1FEE56FD4F71836083C6
:1001D000813041F0809169008C7F842B809369008D
:1001E000E89A089580916900440F551F440F551FE8
:1001F000837F842B80936900E99A0895823068F4A4
:10020000813011F0E89801C0E998E82FF0E0EE0F96
:10021000FF1FEE56FD4F1182108208951F920F921C
:100220000FB60F9211242F933F934F935F936F93C9
:100230007F938F939F93AF93BF93EF93FF9380919F
:10024000920290919302892B29F0E0919202F09111
:1002500093020995FF91EF91BF91AF919F918F917B
:100260007F916F915F914F913F912F910F900FBEB2
:100270000F901F9018951F920F920FB60F92112496
:100280002F933F934F935F936F937F938F939F939E
:10029000AF93BF93EF93FF93809194029091950257
:1002A000892B29F0E0919402F09195020995FF9134
:1002B000EF91BF91AF919F918F917F916F915F91DE
:1002C0004F913F912F910F900FBE0F901F90189557
:1002D0001F920F920FB60F9211242F933F938F937B
:1002E0009F93AF93BF938091960290919702A091B4
:1002F0009802B091990230919E02232F2D5F2D37E5
:1003000020F40196A11DB11D05C0232F2A57029686
:10031000A11DB11D20939E02809396029093970297
:10032000A0939802B093990280919A0290919B02B7
:10033000A0919C02B0919D020196A11DB11D8093D8
:100340009A0290939B02A0939C02B0939D02BF914E
:10035000AF919F918F913F912F910F900FBE0F9072
:100360001F9018950F931F938FB7F89400919602E2
:100370001091970220919802309199028FBFB80195
:10038000C9011F910F9108950F931F939FB7F89480
:1003900000919A0210919B0220919C0230919D0243
:1003A00086B5A89B06C08F3F21F00F5F1F4F2F4FD0
:1003B0003F4F9FBF322F212F102F0027080F111DF5
:1003C000211D311D42E0000F111F221F331F4A95CE
:1003D000D1F7B801C9011F910F910895CF92DF9213
:1003E000EF92FF92CF93DF936B017C010E94C401D7
:1003F000EB010EC00E94C4016C1B7D0B683E734074
:1004000038F081E0C81AD108E108F108C851DC4F82
:10041000C114D104E104F10469F7DF91CF91FF9099
:10042000EF90DF90CF900895019739F0880F991FD2
:10043000880F991F02970197F1F70895789484B572
:10044000826084BD84B5816084BD85B5826085BDD0
:1004500085B5816085BDEEE6F0E0808181608083B6
:10046000E1E8F0E010828081826080838081816099
:100470008083E0E8F0E0808181608083E1EBF0E060
:10048000808184608083E0EBF0E080818160808304
:10049000EAE7F0E0808184608083808182608083ED
:1004A0008081816080838081806880831092C10018
:1004B00008958093060108958E3008F08E5087705D
:1004C0002091060140E4249F90011124822B809307
:1004D0007C0080917A00806480937A0080917A0019
:1004E00086FDFCCF2091780030917900932F80E039
:1004F000AC01422B9A01C90108951F93CF93DF935A
:10050000182FEB0161E00E940803209711F460E0CE
:1005100004C0CF3FD10539F461E0812FDF91CF9145
:100520001F910C944003E12FF0E0E759FF4FE49155
:10053000E330B9F028F4E13051F0E230B1F50CC00D
:10054000E63019F1E73049F1E43079F514C084B5AB
:10055000806884BDC7BD2EC084B5806284BDC8BD1F
:1005600029C080918000806880938000D0938900AA
:10057000C09388001FC080918000806280938000BB
:10058000D0938B00C0938A0015C08091B000806822
:100590008093B000C093B3000DC08091B000806222
:1005A0008093B000C093B40005C0C038D1050CF0F2
:1005B000B3CFADCFDF91CF911F910895833069F014
:1005C00028F48130A1F0823011F514C08630B1F0EA
:1005D0008730C1F08430D9F404C0809180008F77D7
:1005E00003C0809180008F7D80938000089584B542
:1005F0008F7702C084B58F7D84BD08958091B0004F
:100600008F7703C08091B0008F7D8093B0000895F4
:10061000CF93DF9390E0FC01E358FF4F4491FC013E
:10062000EF56FF4F8491882341F190E0880F991F86
:10063000FC01E754FF4F25913491D90181559F4F1B
:10064000FC0185919491C82FD92F9FB7F8948C9174
:10065000611106C0409584238C938881842308C04F
:10066000623041F4242F209582238C938881842B3F
:10067000888302C0842B8C939FBFDF91CF91089514
:100680000F931F93CF93DF931F92CDB7DEB7282F21
:1006900030E0F901E759FF4F8491F901E358FF4F2A
:1006A0001491F901EF56FF4F04910023D1F08823F4
:1006B00021F069830E94DE026981E02FF0E0EE0FF5
:1006C000FF1FE155FF4F85919491DC019FB7F8948E
:1006D0008C91611103C01095812301C0812B8C93F3
:1006E0009FBF0F90DF91CF911F910F910895CF93EE
:1006F000DF93282F30E0F901E759FF4F8491F9018A
:10070000E358FF4FD491F901EF56FF4FC491CC232A
:1007100089F081110E94DE02EC2FF0E0EE0FFF1F46
:10072000EB55FF4F85919491DC018C918D2321E055
:1007300030E011F420E030E0C901DF91CF9108955D
:100740008F929F92AF92BF92CF92DF92EF92FF92E1
:100750000F931F93CF93DF9390E0FC01E358FF4F7B
:10076000D491FC01EF56FF4F7491611102C0C0E0BB
:1007700001C0CD2FDA01C901BF70672F70E0660F8D
:10078000771F6B557F4F812C912C5401FB010591F4
:10079000149110C0C12CD12C7601C394C80CD91C63
:1007A000EA1CFB1C88169906AA06BB0609F44BC076
:1007B00046015701F801E081ED23EC1759F310C011
:1007C000C12CD12C7601C394C80CD91CEA1CFB1C8B
:1007D00088169906AA06BB06B1F14601570103C067
:1007E000FB0105911491F801E081ED23EC13E8CFB2
:1007F00088199909AA09BB0920E030E0A901FB0189
:100800006591749109C0281739074A075B07D9F029
:100810002F5F3F4F4F4F5F4FFB01E081ED23EC1700
:1008200091F3A5E1B0E00E941A248B019C01005FC6
:100830001F4F2F4F3F4F84E036952795179507950B
:100840008A95D1F703C000E010E09801B801C90112
:10085000DF91CF911F910F91FF90EF90DF90CF909C
:10086000BF90AF909F908F900895CF92DF92EF92BC
:10087000FF920F931F93CF93DF93D82EE62EC42EB3
:10088000C7E0D0E0F12C07E010E061E08E2D0E947F
:1008900040038D2DC11006C00E94770398012C1BC8
:1008A0003D0B03C00E9477032C2F01C0880F2A95AF
:1008B000EAF7F82A60E08E2D0E944003219728F77E
:1008C0008F2DDF91CF911F910F91FF90EF90DF90CF
:1008D000CF900895BF92CF92DF92EF92FF920F9345
:1008E0001F93CF93DF93C82ED62EB42EC7E0D0E04F
:1008F000022F10E087E0E82EF12CB1100AC0F701BA
:10090000EC1BFD0BB80102C075956795EA95E2F7FF
:1009100007C0B8010C2E02C0759567950A94E2F7DE
:10092000617077278C2D0E94400361E08D2D0E941D
:10093000400360E08D2D0E9440032197F0F6DF9187
:10094000CF911F910F91FF90EF90DF90CF90BF90CC
:1009500008950F931F93CF93DF938230910510F486
:1009600082E090E0E091D703F091D80320E030E0FE
:10097000C0E0D0E023C04081518148175907A8F05A
:100980004817590761F482819381209719F09B835E
:100990008A832EC09093D8038093D70329C0211552
:1009A000310529F04217530710F0A90102C0BE011A
:1009B000DF0102811381EF019A01F8013097D9F626
:1009C0002115310509F1281B390B2430310590F42C
:1009D00012968D919C9113976115710521F0FB0181
:1009E0009383828304C09093D8038093D703FD013F
:1009F000329644C0FD01E20FF31F81939193225080
:100A000031092D933C933AC02091D5033091D60300
:100A1000232B41F420910201309103013093D6033E
:100A20002093D5032091000130910101211531055A
:100A300041F42DB73EB74091040150910501241BAC
:100A4000350BE091D503F091D603E217F307A0F43C
:100A50002E1B3F0B2817390778F0AC014E5F5F4F14
:100A60002417350748F04E0F5F1F5093D60340936D
:100A7000D5038193919302C0E0E0F0E0CF01DF91D4
:100A8000CF911F910F910895EF92FF920F931F93B3
:100A9000CF93DF93009709F48FC0DC011297139670
:100AA0001C921E921297E090D703F090D803E114A5
:100AB000F10489F42D913C911197280F391F8091F1
:100AC000D5039091D6038217930789F5B093D60387
:100AD000A093D50371C0E70120E030E001C0EA0136
:100AE000CA17DB0738F44A815B819E014115510525
:100AF000B1F722C0BC0162507109FB01D383C283EC
:100B000000811181AC01400F511F4C175D0761F44A
:100B100048815981400F511F4E5F5F4F5183408381
:100B20004A815B81538342832115310529F4B093B7
:100B3000D803A093D70340C0F901B383A283E9018E
:100B400069917991C60FD71FAC17BD0779F4DC0105
:100B50005E914E91460F571F4E5F5F4F518340830A
:100B600012968D919C91139793838283A0E0B0E0BD
:100B700002C0D7017C01F701828193810097C9F7F8
:100B8000C701029620813181820F931F2091D503E6
:100B90003091D6032817390779F4109729F4109269
:100BA000D8031092D70304C013961C921E9212977A
:100BB000F092D603E092D503DF91CF911F910F9170
:100BC000FF90EF9008958F929F92AF92BF92CF9235
:100BD000DF92EF92FF920F931F93CF93DF93EC017D
:100BE000009779F4CB01DF91CF911F910F91FF9086
:100BF000EF90DF90CF90BF90AF909F908F900C942C
:100C0000A904DC01A60FB71FFC013297AE17BF077E
:100C100018F4C0E0D0E0ADC00081118106171707BD
:100C2000B0F00530110508F4A4C0C8010497861778
:100C3000970708F49EC002501109061B170B0D936D
:100C40001D9371836083CD010E94440592C07B0196
:100C5000E01AF10A5C01A00EB11EE091D703F091F9
:100C6000D803812C912C80E090E04CC0EA15FB0564
:100C7000F1F5408151816A0122E0C20ED11CCE14EF
:100C8000DF04A8F19A012E193F097901690132E0C8
:100C9000C30ED11C2EEFA22EBB24BA94AC0EBD1EE7
:100CA00025E0C216D10478F04281538113965C93FB
:100CB0004E9312971196FC92EE92F5017183608328
:100CC0003A2F2B2F09C00E5F1F4F040F151FD501A0
:100CD0000D931C9332812381009721F0FC01328314
:100CE000238347C03093D7032093D80342C0808129
:100CF00091818816990608F44C0152814381CF01F5
:100D0000E52FF42F309709F0B1CF8091D503909162
:100D1000D6038A159B05F1F486169706D8F48091C0
:100D2000000190910101009741F48DB79EB7209189
:100D3000040130910501821B930BA817B90708F035
:100D400068CFB093D603A093D503FE013297718389
:100D500060830FC0CB010E94A9047C01009709F4B5
:100D600058CFA801BE010E945725CE010E9444051C
:100D7000E701CE01DF91CF911F910F91FF90EF908E
:100D8000DF90CF90BF90AF909F908F900895FC011F
:100D900084859585FC01E05CFF4F20813181FC0159
:100DA000EE5BFF4F80819181281B390B2F73332716
:100DB000C9010895FC0184859585FC01E05CFF4F25
:100DC00040815181FC01EE5BFF4F20813181421750
:100DD000530741F00190F081E02DE80FF91F2081C9
:100DE00030E002C02FEF3FEFC9010895FC01848578
:100DF0009585FC01E05CFF4F40815181FC01EE5B79
:100E0000FF4F208131814217530781F0A081B181CA
:100E1000A80FB91F8C91208131812F5F3F4F2F7315
:100E2000332731832083282F30E002C02FEF3FEF9C
:100E3000C9010895FC0181A1882329F0A489B589FD
:100E40008C9186FFFBCF11A20895CF93DF93FC0115
:100E500026853785D901A05CBF4F8D919C91119754
:100E600001968F739927E901CE5BDF4F4881598145
:100E700084179507D9F30D90BC91A02DA20FB31F35
:100E80006C93A685B785A05CBF4F11969C938E93FB
:100E9000A689B7892C9181E090E0078C02C0880F69
:100EA000991F0A94E2F7282B2C9381E081A30488F0
:100EB000F589E02D80818064808381E090E0DF917E
:100EC000CF91089508951F920F920FB60F9211249B
:100ED0002F933F934F938F939F93EF93FF93809123
:100EE000C00082FD1CC04091C600809145039091D6
:100EF000460301968F739927209147033091480349
:100F00008217930771F0E0914503F0914603EB5F80
:100F1000FC4F4083909346038093450302C0809129
:100F2000C600FF91EF919F918F914F913F912F912B
:100F30000F900FBE0F901F9018958FE992E00E94BE
:100F4000C706892B11F00C94620708951F920F9227
:100F50000FB60F9211242F933F938F939F93EF938C
:100F6000FF9320910103309102038091030390913C
:100F700004032817390731F48091C1008F7D8093D5
:100F8000C10014C0E0910303F0910403EF53FD4F3F
:100F90002081809103039091040301968F73992718
:100FA00090930403809303032093C600FF91EF9175
:100FB0009F918F913F912F910F900FBE0F901F9097
:100FC00018958F929F92AF92BF92CF92DF92EF923D
:100FD000FF920F931F93CF93DF93CDB7DEB7FC0142
:100FE0001382128288EE93E0A0E0B0E084839583C0
:100FF000A683B78384E191E09183808375876487BA
:1010000057874687318B208B138B028BF58AE48AB6
:10101000D78AC68AB18EA08E938E828E8F85848F5A
:101020008889858F8989868F8A89878F8B8980A314
:10103000DF91CF911F910F91FF90EF90DF90CF90B4
:10104000BF90AF909F908F900895CF92DF92EF92D4
:10105000FF92CF93DF93EC016A017B01411581EE92
:10106000580761057105F9F0EC89FD8981E090E090
:1010700008A002C0880F991F0A94E2F7808360E0FD
:1010800079E08DE390E0A70196010E944924215068
:1010900031094109510956954795379527952115ED
:1010A00080E1380798F0EC89FD89108260E874E8E7
:1010B0008EE190E0A70196010E9449242150310958
:1010C000410951095695479537952795E889F9893A
:1010D0003083EA89FB89208319A2EE89FF89408148
:1010E00081E090E09C010C8C02C0220F331F0A9417
:1010F000E2F7422B4083EE89FF8940819C010D8CF1
:1011000002C0220F331F0A94E2F7422B4083EE897C
:10111000FF8940819C010E8C02C0220F331F0A946C
:10112000E2F7422B4083EE89FF8920810F8C02C0B9
:10113000880F991F0A94E2F7809582238083DF91BC
:10114000CF91FF90EF90DF90CF900895BF92CF9214
:10115000DF92EF92FF92CF93DF93EC016A017B0164
:10116000B22E411581EE580761057105F9F0EC8941
:10117000FD8981E090E008A002C0880F991F0A94C1
:10118000E2F7808360E079E08DE390E0A7019601CB
:101190000E9449242150310941095109569547952A
:1011A00037952795211580E1380798F0EC89FD895E
:1011B000108260E874E88EE190E0A70196010E9439
:1011C00049242150310941095109569547953795D0
:1011D0002795E889F9893083EA89FB892083E88D9E
:1011E000F98DB082EE89FF89408181E090E09C0119
:1011F0000C8C02C0220F331F0A94E2F7422B40836B
:10120000EE89FF8940819C010D8C02C0220F331FA3
:101210000A94E2F7422B4083EE89FF8940819C01CA
:101220000E8C02C0220F331F0A94E2F7422B408338
:10123000EE89FF8920810F8C02C0880F991F0A94C4
:10124000E2F7809582238083DF91CF91FF90EF902A
:10125000DF90CF90BF900895CF93DF93FC018685F8
:101260009785DC01A05CBF4FEC01CE5BDF4F4D9159
:101270005C9111972881398142175307C1F7A689DC
:10128000B7894C9181E090E09C01048C02C0220F50
:10129000331F0A94E2F7209524232C93A689B7895B
:1012A0004C919C01058C02C0220F331F0A94E2F777
:1012B000209524232C93A689B7894C919C01068CF8
:1012C00002C0220F331F0A94E2F7209524232C93A7
:1012D000A689B7892C91078C02C0880F991F0A94A0
:1012E000E2F7809582238C9384859585FC01EE5BE3
:1012F000FF4F20813181FC01E05CFF4F318320836F
:10130000DF91CF91089581E008951092A20210928A
:10131000A10288EE93E0A0E0B0E08093A302909356
:10132000A402A093A502B093A60284E191E0909359
:10133000A00280939F0285E093E09093AC0280939B
:10134000AB0281EC92E09093AE028093AD0285EC0B
:1013500090E09093B0028093AF0284EC90E0909381
:10136000B2028093B10280EC90E09093B40280933B
:10137000B30281EC90E09093B6028093B50282ECC8
:1013800090E09093B8028093B70286EC90E090933F
:10139000BA028093B90284E08093BB0283E0809319
:1013A000BC0287E08093BD0285E08093BE0281E0AD
:1013B0008093BF020895AF92BF92CF92DF92EF92D7
:1013C000FF920F931F93CF93DF936C017B01C0E0DB
:1013D000D0E000E010E0F601EC0FFD1F4AE050E025
:1013E0006281C7010E94320C5C016EE2C7010E945B
:1013F0000C0B8A0D9B1D080F191F2196C330D105B8
:1014000051F74AE050E0F6016581C7010E94320CB5
:10141000080F191FC801DF91CF911F910F91FF9005
:10142000EF90DF90CF90BF90AF90089524E331E02C
:10143000FC01318320831282138214821582089565
:101440000F93FC0184E391E0918380836283438363
:10145000248305830F91089524E331E0FC01318357
:1014600020834283538364837583089524E331E0AA
:10147000FC0131832083FB014081518162817381B2
:10148000FC0142835383648375830895FC01DB016F
:101490004D915D916D917C914283538364837583FB
:1014A0000895FC01428353836483758308959B01EF
:1014B000BC016E5F7F4F44E050E0C9010E944A25A5
:1014C0009C0181E0232B09F080E0089584E391E002
:1014D00090934A038093490310924B0310924C035C
:1014E00010924D0310924E030895CF92DF92EF9227
:1014F000FF920F931F93CF93DF936C01EB017A015F
:10150000E60EF71E00E010E00BC06991D601ED91E8
:10151000FC910190F081E02DC6010995080F191F7B
:10152000CE15DF0591F7C801DF91CF911F910F9183
:10153000FF90EF90DF90CF9008956115710581F0D5
:10154000DB010D900020E9F7AD0141505109461B28
:10155000570BDC01ED91FC910280F381E02D0994A1
:1015600080E090E00895EF92FF920F931F93CF9346
:10157000DF937C01EB0100E010E0FE012196649115
:10158000662351F0F701A081B181ED91FC91C70173
:101590000995080F191FF1CFC801DF91CF911F9155
:1015A0000F91FF90EF900895AF92BF92CF92DF928C
:1015B000EF92FF920F931F93CF93DF937C016B0108
:1015C00000E010E0C0E0D0E011C0D701ED91FC9147
:1015D000A080B180B801C6010E949218682FC7018F
:1015E000F5010995C80FD91F0F5F1F4FD60114963B
:1015F0008D919C9115970817190738F3CE01DF914B
:10160000CF911F910F91FF90EF90DF90CF90BF90FF
:10161000AF9008950C949D0ADC01ED91FC9101902E
:10162000F081E02D0994DB01ED91FC91119701907F
:10163000F081E02DBC01CD0109940F931F93CF934E
:10164000DF93EC016DE00E940C0B8C016AE0CE018F
:101650000E940C0B9C01200F311FC901DF91CF911B
:101660001F910F9108950F931F93CF93DF93EC0178
:101670000E94B30A8C01CE010E941D0B9C01200F19
:10168000311FC901DF91CF911F910F9108950F93E1
:101690001F93CF93DF93EC010E94D40A8C01CE01FB
:1016A0000E941D0B9C01200F311FC901DF91CF91BA
:1016B0001F910F9108950F931F93CF93DF93EC0128
:1016C0000E949D0A8C01CE010E941D0B9801280FDB
:1016D000391FC901DF91CF911F910F9108950F9389
:1016E0001F93CF93DF93EC010E940C0B8C01CE0172
:1016F0000E941D0B9C01200F311FC901DF91CF916A
:101700001F910F9108950F931F93CF93DF93EC01D7
:101710000E94130B8C01CE010E941D0B9C01200F17
:10172000311FC901DF91CF911F910F9108954F9201
:101730005F926F927F929F92AF92BF92CF92DF9211
:10174000EF92FF920F931F93CF93DF93CDB7DEB746
:10175000A1970FB6F894DEBF0FBECDBF5C016A0142
:101760007B01922E19A281E0821710F08AE0982E58
:101770008E010F5D1F4F492C512C612C712CC7011C
:10178000B601A30192010E9449248C2D929E8019DA
:101790001124015011098A3014F4805D01C0895C64
:1017A000F801808369017A01C114D104E104F104D4
:1017B00031F7B801C5010E949D0AA1960FB6F894B1
:1017C000DEBF0FBECDBFDF91CF911F910F91FF9074
:1017D000EF90DF90CF90BF90AF909F907F906F90F1
:1017E0005F904F9008952115310541F4DC01ED9192
:1017F000FC910190F081E02D642F09940C94970BDB
:101800000F931F93CF93DF93EC010E94F30B8C0196
:10181000CE010E941D0B9C01200F311FC901DF91D9
:10182000CF911F910F9108959A01AB0160E070E094
:101830000C94F30B0F931F93CF93DF93EC019A015A
:10184000AB0160E070E00E94F30B8C01CE010E94BE
:101850001D0B9801280F391FC901DF91CF911F91EE
:101860000F9108959A01462F50E060E070E00C94CB
:10187000F30B0F931F93CF93DF93EC019A01462F45
:1018800050E060E070E00E94F30B8C01CE010E94FA
:101890001D0B9801280F391FC901DF91CF911F91AE
:1018A0000F910895CF92DF92EF92FF920F931F93C3
:1018B000CF93DF93EC016A017B012115310579F4A7
:1018C000E881F9810190F081E02D642FDF91CF91C3
:1018D0001F910F91FF90EF90DF90CF9009942A30E5
:1018E000310519F477FD0EC02AE0B701A601CE013B
:1018F000DF91CF911F910F91FF90EF90DF90CF90EC
:101900000C94970B6DE20E940C0B8C014427552719
:10191000BA014C195D096E097F092AE0CE010E94C7
:10192000970B080F191FC801DF91CF911F910F91DD
:10193000FF90EF90DF90CF9008950F931F93CF9378
:10194000DF93EC010E94520C8C01CE010E941D0B12
:101950009C01200F311FC901DF91CF911F910F9181
:1019600008959A01AB01662757FD6095762F0C9478
:10197000520C0F931F93CF93DF93EC019A01AB01AD
:10198000662757FD6095762F0E94520C8C01CE0180
:101990000E941D0B9801280F391FC901DF91CF91BB
:1019A0001F910F9108957F928F929F92AF92BF9255
:1019B000CF92DF92EF92FF920F931F93CF93DF931B
:1019C000EC016A017B01122F9A01AB01C701B6013C
:1019D0000E941624882319F06CE371E032C046019E
:1019E0005701E894B7F82FEF3FEF4FE75FE7C501E6
:1019F000B4010E94162481110DC02FEF3FEF4FE775
:101A00005FE7C501B4010E94602218161CF460E46F
:101A100071E017C02FEF3FEF4FE75FE4C701B6015A
:101A20000E94AF2318160CF40AC02FEF3FEF4FE7C8
:101A30005FECC701B6010E94602287FF12C064E418
:101A400071E0CE01DF91CF911F910F91FF90EF9048
:101A5000DF90CF90BF90AF909F908F907F900C942D
:101A60009D0A20E030E0A901C701B6010E94602272
:101A700087FF0AC06DE2CE010E940C0B5C01F7FAF1
:101A8000F094F7F8F09402C0A12CB12C00E060E0D3
:101A900070E080E09FE307C020E030E040E251E4E6
:101AA0000E9464220F5F0113F7CF262F372F482F94
:101AB000592FC701B6010E94FC21762E872E982E41
:101AC000C92E0E94D122D62EE72EF82E092F0E9471
:101AD000FD229B01AC01672D782D892D9C2D0E9444
:101AE000FB21C62E972E882E792E2AE04D2D5E2DB5
:101AF0006F2D702FCE010E94970B7C01EA0CFB1C0E
:101B00001123B9F16CE971E0CE010E949D0AE80E43
:101B1000F91E2FC020E030E040E251E46C2D792D19
:101B2000882D972D0E94B323762E072F6C019D2DB3
:101B30000E94CC224B01AA2497FCA094BA2C2AE044
:101B400030E0B501A401CE010E94520CE80EF91E4E
:101B5000C501B4010E94FF229B01AC01672D702FCB
:101B60008C2D9D2D0E94FB21C62E972E882E792E1E
:101B700011501111CFCFC701DF91CF911F910F915C
:101B8000FF90EF90DF90CF90BF90AF909F908F909D
:101B90007F9008950C94D30C0F931F93CF93DF93F2
:101BA000EC010E94D30C8C01CE010E941D0B980108
:101BB000280F391FC901DF91CF911F910F9108950F
:101BC0000F931F93CF93DF93EC010E94B2016887BC
:101BD00079878A879B87E881F9810680F781E02DE4
:101BE000CE0109959C0197FF15C00E94B20108859E
:101BF00019852A853B85601B710B820B930B0C8129
:101C00001D812E813F81601771078207930718F3AA
:101C10002FEF3FEFC901DF91CF911F910F910895F1
:101C20000F931F93CF93DF93EC010E94B20168875B
:101C300079878A879B87E881F9810084F185E02D87
:101C4000CE0109959C0197FF15C00E94B20108853D
:101C500019852A853B85601B710B820B930B0C81C8
:101C60001D812E813F81601771078207930718F34A
:101C70002FEF3FEFC901DF91CF911F910F91089591
:101C8000CF93DF93EC01CE010E94100E9C0197FDD3
:101C90000EC08D32910559F0C0970A9740F0E88147
:101CA000F9810680F781E02DCE010995ECCFC901BD
:101CB000DF91CF910895FC01448355836683778338
:101CC00008956F927F928F929F92AF92BF92CF9220
:101CD000DF92EF92FF920F931F93CF93DF935C01FC
:101CE0006B014A013901FB0180818823E9F1E12C74
:101CF000F12CC0E0D0E030C0F601EC0FFD1F2081D8
:101D0000332727FD30958217930711F0C0E0D0E00C
:101D1000F601EC0FFD1F2081332727FD3095821738
:101D2000930721F42196C815D905F0F40115110582
:101D300089F0F301EE0DFF1D2081332727FD30953B
:101D40008217930739F4FFEFEF1AFF0AE016F10646
:101D500018F008C0E12CF12CC5010E94E00D181606
:101D6000190654F280E001C081E0DF91CF911F910C
:101D70000F91FF90EF90DF90CF90BF90AF909F902A
:101D80008F907F906F9008950F931F939A01DA01BF
:101D90000D900020E9F78D0101501109041B150B6E
:101DA000FB0101900020E9F7AF0141505109461BAA
:101DB000570B0E94610E1F910F91089540E050E073
:101DC0000C94C40E0F931F9300E010E020E030E06D
:101DD0000E94610E1F910F910895CF92DF92FF92A2
:101DE0000F931F93CF93DF9300D000D0CDB7DEB712
:101DF0006C01062F0E94400EFC0120E030E0A9019A
:101E000097FD47C0F12C112707FD1095E017F1074A
:101E1000E9F0ED32F105C1F0CF01C0970A97B0F4B7
:101E2000AAE0B0E00E941A249B01AC01CF01AA27CE
:101E300097FDA095BA2F280F391F4A1F5B1F20530B
:101E400031094109510902C0FF24F394D601ED91F3
:101E5000FC910680F781E02DC60129833A834B83EC
:101E60005C830995C6010E94100EFC01C097298170
:101E70003A814B815C810A9748F2E017F10731F211
:101E8000FF2039F050954095309521953F4F4F4FA9
:101E90005F4FB901CA010F900F900F900F90DF9123
:101EA000CF911F910F91FF90DF90CF90089561E047
:101EB0000C94ED0E7F928F929F92AF92BF92CF9231
:101EC000DF92EF92FF920F931F93CF93DF93EC017A
:101ED000862E0E94400EE82F87FD6EC0A12CB12CEB
:101EE00000E81FE3C12CD12C7601712C912CE81550
:101EF00099F1ED3261F1EE3269F18E2F80538A3023
:101F000058F5AAE0B0E0A70196010E941A246B01DF
:101F10007C018E2F992787FD9095A92FB92FC80E88
:101F2000D91EEA1EFB1E80E3C81AD108E108F10899
:101F3000772091F02DEC3CEC4CEC5DE36A2D7B2D91
:101F4000802F912F0E94B3235B018C0103C0992441
:101F5000939402C077247394E881F9810680F78115
:101F6000E02DCE010995CE010E94100EE82F982F8A
:101F700090539A3008F4BBCF8E3209F4B8CF88154D
:101F800009F4B5CF992041F0F094E094D094C09436
:101F9000C11CD11CE11CF11CC701B601772049F01E
:101FA0000E94FF222A2D3B2D402F512F0E94B32348
:101FB00007C00E94FF2204C060E070E080E090E073
:101FC000DF91CF911F910F91FF90EF90DF90CF9015
:101FD000BF90AF909F908F907F90089561E00C9498
:101FE0005A0FCF92DF92EF92FF920F931F93CF93EE
:101FF000DF937C018B016A01C0E0D0E009C0C7011A
:102000000E94E00D97FD07C0F80181938F01219692
:10201000CC15DD05A1F7CE01DF91CF911F910F9176
:10202000FF90EF90DF90CF900895AF92BF92CF9244
:10203000DF92EF92FF920F931F93CF93DF936C0188
:102040008A017901C0E0D0E02115310599F0A62E72
:10205000BB24A7FCB094C6010E94E00D97FD0AC006
:102060008A159B0539F0F80181938F012196CE15D1
:10207000DF0589F7CE01DF91CF911F910F91FF907E
:10208000EF90DF90CF90BF90AF9008950F931F9384
:10209000CF93DF93EC018B016CE671E00E94281472
:1020A00004C0682FCE010E94C015C8010E94E00D37
:1020B00097FFF7CFCE01DF91CF911F910F91089538
:1020C000EF92FF920F931F93CF93DF93EC018B015D
:1020D000E42E6CE671E00E942814C8010E94E00D15
:1020E000FF24E7FCF09497FD0BC08E159F0541F08F
:1020F000682FCE010E94C015C8010E94E00DF3CFE9
:10210000CE01DF91CF911F910F91FF90EF90089535
:102110003F924F925F926F927F928F929F92AF9277
:10212000BF92CF92DF92EF92FF920F931F93CF93C4
:10213000DF9300D000D0CDB7DEB78B0129013A0183
:1021400090910B01981721F09F3F09F0CAC104C07C
:10215000E8E6F0E034907EC080930B01E8E6F0E022
:1021600034909FEF391609F4BCC1E1E03E1631F11D
:10217000F2E03F1609F448C031106CC014BC15BC25
:1021800094B5926094BD95B5916095BD282F30E0CF
:10219000F901EF56FF4FE491F0E0EE0FFF1FE1551C
:1021A000FF4F4591549140935E0350935F03F901B3
:1021B000E358FF4F249120935D034EC0109280009E
:1021C000109281009091810098609093810090918D
:1021D0008100916090938100282F30E0F901EF5643
:1021E000FF4FE491F0E0EE0FFF1FE155FF4F4591E7
:1021F00054914093570350935803F901E358FF4F0C
:1022000024912093560328C01092B0001092B10080
:102210009091B00092609093B0009091B100916065
:102220009093B100282F30E0F901EF56FF4FE49171
:10223000F0E0EE0FFF1FE155FF4F459154914093A1
:10224000500350935103F901E358FF4F2491209319
:102250004F0302C037FC45C161E00E9408034801FA
:10226000A12CB12C60E072E18AE790E0A501940115
:102270000E944924332019F082E03812B7C0298324
:102280003A834B835C8369017A0191E0C91AD108D2
:10229000E108F108EFEFCE16D104E104F10409F0F2
:1022A00008F49AC060E472E48FE090E0A501940124
:1022B0000E94492469017A01F1E0CF1AD108E108AE
:1022C000F10882E0381219C09FEFC916D104E10469
:1022D000F10409F008F401C160E970ED83E090E0D9
:1022E000A50194010E94492469017A01E1E0CE1A16
:1022F000D108E108F10883E001C082E0FFEFCF16CA
:10230000D104E104F10409F008F467C068E478EE50
:1023100081E090E0A50194010E94492469017A01BD
:1023200081E0C81AD108E108F1083320E1F092E019
:1023300039121BC0EFEFCE16D104E104F10409F00D
:1023400008F4CDC064E274EF80E090E0A501940150
:102350000E94492469017A01F1E0CF1AD108E1080D
:10236000F10885E003C083E001C084E09FEFC91657
:10237000D104E104F10489F180F162E17AE780E0BF
:1023800090E0A50194010E94492469017A01E1E0ED
:10239000CE1AD108E108F108311002C084E001C072
:1023A00086E0FFEFCF16D104E104F104B1F0A8F00C
:1023B000C980DA80EB80FC809AE0F694E794D794A9
:1023C000C7949A95D1F781E0C81AD108E108F108BD
:1023D000332031F087E007C081E0332011F003C0E3
:1023E00085E085BD2BC08093B10028C069017A01CA
:1023F00091E0C91AD108E108F108C114D104E1E063
:10240000EE06F10488F068E478EE81E090E0A50142
:1024100094010E94492469017A01F1E0CF1AD108A0
:10242000E108F10893E001C091E081E0381206C0B4
:1024300080918100887F892B809381004114510411
:102440006104710471F0D801AA0FBB1FA3019201AE
:102450000E941A2428EE33E040E050E00E94492414
:1024600003C02FEF3FEFA90191E03916A1F0E2E0A0
:102470003E1619F1311035C0C7BC2093600330936C
:102480006103409362035093630380916E00826006
:1024900080936E0026C0D0928900C092880020935D
:1024A000590330935A0340935B0350935C0380912C
:1024B0006F00826080936F0014C0C092B3002093BD
:1024C0005203309353034093540350935503809128
:1024D000700082608093700004C082E084CF84E04A
:1024E00082CF0F900F900F900F90DF91CF911F919F
:1024F0000F91FF90EF90DF90CF90BF90AF909F90A3
:102500008F907F906F905F904F903F9008958130B3
:1025100039F018F08230D1F409C010926E0008959D
:1025200080916F008D7F80936F000895809170007F
:102530008D7F8093700081E08093B0008091B10026
:10254000887F84608093B1001092B3000895CF9388
:10255000C82F80910B018C1307C0E8E6F0E084914E
:102560009FEF90930B0101C08FEF0E94871260E0F4
:102570008C2FCF910C9440031F920F920FB60F92A5
:1025800011242F933F934F935F936F937F938F9378
:102590009F93AF93BF93EF93FF93809152039091DA
:1025A0005303A0915403B0915503892B8A2B8B2B95
:1025B00051F190914F03E0915003F09151038081CC
:1025C000892780838091520390915303A0915403F3
:1025D000B0915503181619061A061B06C4F480910B
:1025E000520390915303A0915403B0915503019766
:1025F000A109B1098093520390935303A09354030C
:10260000B093550304C080910B010E94A712FF9163
:10261000EF91BF91AF919F918F917F916F915F915A
:102620004F913F912F910F900FBE0F901F901895D3
:10263000009729F0BC0180E090E00C9402250895F9
:102640000F931F93CF93DF9300D000D0CDB7DEB7A9
:102650009B01AC01611571058105910579F06983D4
:102660003A834B835C830E94FD2429813A814B810C
:102670005C810E946B248B019C0103C000E010E090
:102680009801B801C9010F900F900F900F90DF9142
:10269000CF911F910F910895CF92DF92EF92FF9209
:1026A0006B017C01621773078407950764F4CA0104
:1026B000B9016C197D098E099F090E942013C60E6D
:1026C000D71EE81EF91EB601C701FF90EF90DF90FC
:1026D000CF9008954F925F926F927F92AF92BF9288
:1026E000CF92DF92EF92FF920F931F93CF93DF93DE
:1026F000CDB7DEB729013A01621B730B840B950B32
:1027000029893A894B895C892A193B094C095D0959
:10271000298B3A8B4B8B5C8B9B01AC0169897A8945
:102720008B899C890E942524E418F508060917095D
:10273000A80197010E946B242A0D3B1D4C1D5D1DB5
:10274000B901CA01DF91CF911F910F91FF90EF90D6
:10275000DF90CF90BF90AF907F906F905F904F9041
:1027600008950895382F20E0262BC9010895FC0113
:10277000808191810C944405CF93DF93EC01888193
:102780009981009711F00E944405198218821D82D8
:102790001C821B821A82DF91CF9108950F931F93A1
:1027A000CF93DF93EC018B016F5F7F4F888199811D
:1027B0000E94E305009731F0998388831B830A8385
:1027C00081E001C080E0DF91CF911F910F910895CA
:1027D000CF93DF93EC0188819981892B31F08A8135
:1027E0009B818617970708F00CC0CE010E94CE137C
:1027F000882349F08C819D81892B19F4E881F98126
:10280000108281E001C080E0DF91CF910895EF92C6
:10281000FF920F931F93CF93DF93EC017B018A010B
:10282000BA010E94E813811104C0CE010E94BC13BA
:1028300007C01D830C83B701888199810E9486257A
:10284000CE01DF91CF911F910F91FF90EF900895EE
:10285000DC0111961C921E9213961C921E921297E6
:1028600015961C921E92149716961C92611571056E
:1028700059F0DB010D900020E9F7AD0141505109FD
:10288000461B570B0C9407140895CF93DF93EC016C
:10289000FB018617970761F06081718161157105F1
:1028A00029F0448155810E94071402C00E94BC1384
:1028B000CE01DF91CF910895FC0111821082138225
:1028C00012821582148216820C944514CF93DF93E2
:1028D000D82FC92F6115710561F0DB010D90002023
:1028E000E9F7AD0141505109461B570B0E940714EF
:1028F00002C00E94BC138D2F9C2FDF91CF910895B1
:102900000F931F93CF93DF93CDB7DEB7A1970FB689
:10291000F894DEBF0FBECDBF8C01CB01BA01F80128
:10292000118210821382128215821482168230E084
:10293000AE014F5F5F4F0E943926BE016F5F7F4F30
:10294000C8010E946614A1960FB6F894DEBF0FBEB0
:10295000CDBFDF91CF911F910F9108950F931F93DA
:10296000CF93DF93CDB7DEB7A2970FB6F894DEBF53
:102970000FBECDBF8C01CB01BA01F80111821082CC
:102980001382128215821482168230E0AE014F5FEC
:102990005F4F0E94F025BE016F5F7F4FC8010E940C
:1029A0006614A2960FB6F894DEBF0FBECDBFDF91BE
:1029B000CF911F910F9108950F931F93CF93DF93A2
:1029C000CDB7DEB761970FB6F894DEBF0FBECDBFAF
:1029D0008C01CB01F80111821082138212821582C0
:1029E0001482168250E0BE016F5F7F4F0E945E2608
:1029F000BE016F5F7F4FC8010E94661461960FB6DB
:102A0000F894DEBF0FBECDBFDF91CF911F910F9124
:102A100008950F931F93CF93DF93CDB7DEB76297DF
:102A20000FB6F894DEBF0FBECDBF8C01CB01F8010D
:102A3000118210821382128215821482168250E053
:102A4000BE016F5F7F4F0E94CF25BE016F5F7F4F3A
:102A5000C8010E94661462960FB6F894DEBF0FBEDE
:102A6000CDBFDF91CF911F910F9108950F931F93C9
:102A7000CF93DF93CDB7DEB729970FB6F894DEBFBB
:102A80000FBECDBF8C01862FF801118210821382F8
:102A9000128215821482168250E0BE016F5F7F4F52
:102AA00090E00E945E26BE016F5F7F4FC8010E94CA
:102AB000661429960FB6F894DEBF0FBECDBFDF9126
:102AC000CF911F910F910895CF93DF9300D0CDB791
:102AD000DEB7FC01118210821382128215821482E9
:102AE000168269831A82BE016F5F7F4F0E9466144F
:102AF0000F900F90DF91CF910895EF92FF920F9377
:102B00001F93CF93DF93EC017B010C811D81611535
:102B1000710511F480E016C04115510591F0040FC4
:102B2000151FB8010E94E8138823A1F32881398179
:102B30008C819D81B701820F931F0E9486251D8382
:102B40000C8381E0DF91CF911F910F91FF90EF9067
:102B50000895FB0144815581608171810C947D153C
:102B60006115710559F0DB010D900020E9F7AD0109
:102B700041505109461B570B0C947D1580E0089578
:102B8000CF93DF9300D0CDB7DEB769831A8241E0DF
:102B900050E0BE016F5F7F4F0E947D150F900F9038
:102BA000DF91CF910895EF92FF920F931F93CF93F0
:102BB000DF9300D000D0CDB7DEB77C01862F4AE08E
:102BC00050E08E010F5F1F4FB80190E00E94CF25AB
:102BD000F80101900020E9F7AF0141505109401B75
:102BE000510BB801C7010E947D150F900F900F90F7
:102BF0000F90DF91CF911F910F91FF90EF9008956B
:102C0000EF92FF920F931F93CF93DF93CDB7DEB771
:102C100027970FB6F894DEBF0FBECDBF7C01CB0166
:102C20004AE050E08E010F5F1F4FB8010E94CF2590
:102C3000F80101900020E9F7AF0141505109401B14
:102C4000510BB801C7010E947D1527960FB6F89465
:102C5000DEBF0FBECDBFDF91CF911F910F91FF90CF
:102C6000EF900895EF92FF920F931F93CF93DF930E
:102C700000D000D000D0CDB7DEB77C01CB014AE058
:102C800050E08E010F5F1F4FB8010E945E26F801D1
:102C900001900020E9F7AF0141505109401B510B51
:102CA000B801C7010E947D1526960FB6F894DEBFC5
:102CB0000FBECDBFDF91CF911F910F91FF90EF908D
:102CC0000895EF92FF920F931F93CF93DF93CDB7A9
:102CD000DEB72C970FB6F894DEBF0FBECDBF7C01D8
:102CE000CB01BA012AE030E08E010F5F1F4FA8012F
:102CF0000E94F025F80101900020E9F7AF01415052
:102D00005109401B510BB801C7010E947D152C963B
:102D10000FB6F894DEBF0FBECDBFDF91CF911F91EC
:102D20000F91FF90EF900895EF92FF920F931F93F2
:102D3000CF93DF93CDB7DEB72B970FB6F894DEBFF6
:102D40000FBECDBF7C01CB01BA012AE030E08E017D
:102D50000F5F1F4FA8010E943926F8010190002043
:102D6000E9F7AF0141505109401B510BB801C701B0
:102D70000E947D152B960FB6F894DEBF0FBECDBF17
:102D8000DF91CF911F910F91FF90EF900895CF9316
:102D9000DF93D82FC92FFB01448155816081718158
:102DA0000E947D15811104C08D2F9C2F0E94BC13A1
:102DB0008D2F9C2FDF91CF910895CF93DF93D82F44
:102DC000C92F6115710569F0DB010D900020E9F74D
:102DD000AD0141505109461B570B0E947D158111D1
:102DE00004C08D2F9C2F0E94BC138D2F9C2FDF9130
:102DF000CF910895CF93DF93D82FC92F0E94C0158C
:102E0000811104C08D2F9C2F0E94BC138D2F9C2FED
:102E1000DF91CF910895CF93DF93D82FC92F0E94D0
:102E2000D315811104C08D2F9C2F0E94BC138D2FB0
:102E30009C2FDF91CF910895CF93DF93D82FC92F87
:102E40000E940016811104C08D2F9C2F0E94BC137C
:102E50008D2F9C2FDF91CF910895CF93DF93D82FA3
:102E6000C92F0E943216811104C08D2F9C2F0E9401
:102E7000BC138D2F9C2FDF91CF910895CF93DF93BB
:102E8000D82FC92F0E946116811104C08D2F9C2F4D
:102E90000E94BC138D2F9C2FDF91CF910895CF936B
:102EA000DF93D82FC92F0E949416811104C08D2F53
:102EB0009C2F0E94BC138D2F9C2FDF91CF910895E2
:102EC000CF93DF93DC01ED91FC91EB01A881B981F7
:102ED000309711F01097C9F4109759F0EB012C813D
:102EE0003D81232B31F02C9130E031952195310932
:102EF00014C0309781F0DC0114968D919C91159748
:102F0000892B49F0208130E008C0BD01CF01DF915D
:102F1000CF910C947D2520E030E0C901DF91CF9165
:102F20000895FC0144815581FB01248135814217BC
:102F3000530729F40E94601721E0892B09F020E053
:102F4000822F0895DC0114962D913C911597232B27
:102F500039F481E06115710511F0FB0108C0089595
:102F6000DC01ED91FC916115710529F481E09081FE
:102F7000992349F007C0CF010E947D259C0181E083
:102F8000232B09F080E008950E946017892F881F85
:102F90008827881F08950E94601721E018161906D7
:102FA0000CF020E0822F08950E94601721E018168F
:102FB00019060CF420E0822F08950E946017892FD3
:102FC0008095881F8827881F0895EF92FF920F939E
:102FD0001F93CF93DF938617970729F1FC01248174
:102FE0003581FB014481558124173507F1F4232BEA
:102FF000D1F0C081D181FC01008111810FC09927DE
:1030000087FD90950E943A257C018991992787FD3B
:1030100090950E943A25E816F90639F4F801819155
:103020008F018111ECCF81E001C080E0DF91CF9171
:103030001F910F91FF90EF900895FA01DB01149614
:103040004D915C911597DC0114962D913C9115974B
:10305000241B350B2E173F0790F08D919C91009704
:1030600071F0DB016D917C916115710541F08E0F5E
:103070009F1F0E948D259C0181E0232B09F080E099
:103080000895FC0144815581FB012481358142175B
:10309000530720F040E050E00C941D1880E00895A4
:1030A000FC0184819581DB0114964D915C9115970B
:1030B00084179507A0F0208131812115310579F021
:1030C0006D917C916115710551F0841B950B820FF8
:1030D000931F0E947D259C0181E0232B09F080E055
:1030E0000895DC0114962D913C9115976217730792
:1030F00028F4ED91FC91E60FF71F40830895FC0141
:10310000248135816217730720F4808191810097B3
:1031100029F41092640364E673E002C0680F791F1B
:10312000CB010895FC01248135816217730748F4AF
:1031300080819181009729F0FC01E60FF71F8081C3
:10314000089580E008950C9492180F931F93CF93E5
:10315000DF93EB0141155105E9F02097D9F0FC010F
:10316000048115812017310708F013C0415051091F
:10317000021B130B4017510708F48A01FC01608100
:103180007181620F731FA801CE010E949B25C00FA1
:10319000D11F1882DF91CF911F910F910895CF9386
:1031A000DF93FC01848195814817590780F4C08121
:1031B000D181772767FD7095CE01840F951F0E94FE
:1031C0007225009721F09C012C1B3D0B02C02FEFB4
:1031D0003FEFC901DF91CF91089540E050E00C949A
:1031E000CF18CF93DF93FC0184819581481759074D
:1031F00080F4C081D181FB0160817181CE01840F97
:10320000951F0E94B525009721F09C012C1B3D0BBA
:1032100002C02FEF3FEFC901DF91CF91089540E049
:1032200050E00C94F118DF92EF92FF920F931F93EE
:10323000CF93DF93EC018C819D814817590718F0DB
:103240002FEF3FEF1DC08A010F5F1F4FE881F9810B
:10325000E00FF11FD0801082E880F980772767FDAA
:103260007095C7010E94AA25F701E00FF11FD082D7
:10327000009731F328813981AC01421B530B9A012D
:10328000C901DF91CF911F910F91FF90EF90DF90D7
:103290000895FC0144815581415051090C94131942
:1032A000AF92BF92CF92DF92EF92FF920F931F9354
:1032B000CF93DF936B018A01FB0144815581411556
:1032C000510569F1FC01248135812115310539F160
:1032D0002417350720F10217130718F08901015050
:1032E0001109FC01E080F180C701CFEFDFEF57014A
:1032F000A00EB11E10C0F601608171810E94B5253B
:10330000009779F09C012E193F090217130708F462
:103310009E010196E901A816B90668F702C0CFEF31
:10332000DFEFCE01DF91CF911F910F91FF90EF90D2
:10333000DF90CF90BF90AF900895FC0144815581FC
:10334000FB0124813581421B530B0C945019BF9211
:10335000CF92DF92EF92FF920F931F93CF93DF9361
:103360006C017B01EA0189012417350720F48D2FB8
:10337000E901042F182F6CE671E0C6010E942814A1
:10338000D70114968D919C9115978C179D07C8F0C5
:103390008017910708F48C01D701ED91FC911197EA
:1033A000E00FF11FB08010826D917C916C0F7D1F3A
:1033B000C6010E946614D701ED91FC91E00FF11F48
:1033C000B082C601DF91CF911F910F91FF90EF90D6
:1033D000DF90CF90BF900895CF93DF93EC01FB0176
:1033E000248135810E94A719CE01DF91CF910895E4
:1033F000DC01ED91FC91309729F40895861301C00A
:103400004083319680818111F9CF08952F923F92A8
:103410004F925F926F927F928F929F92AF92BF92E4
:10342000CF92DF92EF92FF920F931F93CF93DF9390
:103430008C015B017A01DC0114964D905C9015972C
:103440004114510409F4E1C0FB01648075806114EA
:10345000710409F4DAC0DA011496CD90DC90159766
:10346000C618D708FC01C081D181C114D104E1F490
:1034700011C0D7016C9111967C91119714964D91C2
:103480005C911597C8010E945725F701C481D58129
:10349000C00FD11FD5016D917C91CE010E94B52541
:1034A0008C01009731F7B1C0D7FE02C04E012EC08B
:1034B000FB012080318042014DC032016C1A7D0A2F
:1034C000A301BE01C4010E945725680C791CD701D5
:1034D0006C9111967C91119714964D915C91159772
:1034E000C3010E945725F70184809580860C971CA4
:1034F000D5011496CD91DC911597C40DD51DF80119
:10350000848195818C0D9D1D95838483D5016D915A
:103510007C91CE010E94B5252C01009771F6BE0169
:10352000C401DF91CF911F910F91FF90EF90DF9039
:10353000CF90BF90AF909F908F907F906F905F9053
:103540004F903F902F900C948625EC01C60DD71D0F
:103550008C0C9D1CB101CE010E94B5250097A9F7E6
:103560008414950409F451C0F8018281938188156F
:10357000990598F4B401C8010E94CE13882309F478
:1035800044C00BC097FD41C0AC01B501C8010E9409
:103590005019EC0197FF07C038C0D80114968D91DF
:1035A0009C91159730C0F80180819181D5011496C6
:1035B0002D913C9115972C0F3D1F820F931F448135
:1035C0005581421B530BBC018C0D9D1D0E94602533
:1035D000F801848195818C0D9D1D958384830190D4
:1035E000F081E02DE80FF91F1082D8012D913C9158
:1035F0002C0F3D1FF7016081718144815581C90104
:103600000E945725CE010197BDCFDF91CF911F9129
:103610000F91FF90EF90DF90CF90BF90AF909F9071
:103620008F907F906F905F904F903F902F90089574
:10363000CF93DF93FC01C081D181209739F409C079
:10364000992787FD90950E943A2589938881811159
:10365000F7CFDF91CF910895CF93DF93FC01C08125
:10366000D181209739F409C0992787FD90950E9450
:103670004225899388818111F7CFDF91CF910895F9
:10368000AF92BF92CF92DF92EF92FF920F931F9370
:10369000CF93DF936C01DC01ED90FC901197E11466
:1036A000F10409F447C014960D911C91159701156A
:1036B000110509F43FC05701E501BFEFAB1ABB0A82
:1036C0008881992787FD90950E943225892BA1F743
:1036D000015011090E0D1F1DF8018081992787FDEA
:1036E00090950E943225892B69F40F5F1F4F0C1BA8
:1036F0001D0BD60115961C930E931497EC16FD0620
:1037000050F404C00C171D0790F4EFCFA801BE01C0
:10371000C7010E945725D601ED91FC91119714968F
:103720008D919C911597E80FF91F108203C00150ED
:103730001109D2CFDF91CF911F910F91FF90EF90A0
:10374000DF90CF90BF90AF900895FC018081918170
:10375000009711F00C940B2560E070E080E090E0A1
:1037600008950E941E020E943820CDE9D7E00E94F1
:1037700010212097E1F30E949D07F9CF0C94A90432
:103780000C94A9040C9444050C94440521E030E009
:10379000FC018081882311F020E030E0C901089508
:1037A00021E0FC0120830895089508952091A70346
:1037B0003091A80328173907C1F4909165038091CF
:1037C0006603981791F0E0916503F0E0E959FC4F2A
:1037D00080812091650330E02F5F3F4F2F733327A7
:1037E00020936503282F30E002C02FEF3FEFC9017F
:1037F00008952091A7033091A8032817390781F471
:103800009091650380916603981751F0E0916503EC
:10381000F0E0E959FC4F2081332727FD309502C0A5
:103820002FEF3FEFC90108952091A7033091A8031E
:103830002817390739F48FB7F8941092660310925D
:1038400065038FBF08952091A7033091A80328171F
:10385000390779F4809166032091650390E0805CDC
:103860009F4F821B910960E470E00E9435249C0107
:1038700002C020E030E0C9010895DC015196ED91CD
:10388000FC915297208150968C9180958223808361
:10389000089520E001972FEF8F3F9207D9F7089501
:1038A0002091A7033091A8032817390789F0FC015C
:1038B000238D2E7F238F2FB7F894109266031092DA
:1038C00065039093A8038093A7032FBF81E0089519
:1038D00080E00895EF92FF920F931F93CF93DF93B1
:1038E000EC018B8DEE85FF859D8581FF04C0808175
:1038F000892329F445C08081892309F041C08B893F
:103900009C890E94491C08E010E0EE24E394F12C0D
:103910008D899E890E94491CEE85FF8580819D8549
:10392000892311F0FE2803C08E2D8095F822EE0C1D
:103930000150110969F78F89988D0E94491C8B8D60
:1039400081FDF094809166032091650390E00196DB
:103950008F73992730E08217930779F0E09166031F
:10396000F0E0E959FC4FF0828091660390E0019607
:103970008F7399278093660303C08B8D81608B8F33
:10398000DF91CF911F910F91FF90EF9008956111FA
:1039900002C00C943D1CDC015196ED91FC915297B4
:1039A000208150968C91282B20830895DF92EF92EE
:1039B000FF920F931F93CF93DF93EC01E62E898D37
:1039C0009A8D892B39F481E090E09B838A8320E0F3
:1039D00030E049C0DFB6F8946B8D66956170CE011A
:1039E0000E94C71C898D9A8D05960E94491C8B8D5B
:1039F00008E010E0FF24F39481FF17C08F2D8E2183
:103A000021F0CE010E943D1C04C061E0CE010E9465
:103A1000C71C898D9A8D0E94491CFF0C0150110909
:103A200069F7CE010E943D1C17C08F2D8E2129F011
:103A300061E0CE010E94C71C03C0CE010E943D1C64
:103A4000898D9A8D0E94491CFF0C0150110969F75C
:103A500061E0CE010E94C71CDFBE898D9A8D0E9455
:103A6000491C21E030E0C901DF91CF911F910F91F6
:103A7000FF90EF90DF900895FC01A685B7859C919B
:103A80008585892308958091A7039091A8030097C5
:103A900011F00C946A1C08951F920F920FB60F92AA
:103AA00011242F933F934F935F936F937F938F9343
:103AB0009F93AF93BF93EF93FF930E94431DFF919A
:103AC000EF91BF91AF919F918F917F916F915F9196
:103AD0004F913F912F910F900FBE0F901F9018950F
:103AE0001F920F920FB60F9211242F933F934F9373
:103AF0005F936F937F938F939F93AF93BF93EF9356
:103B0000FF930E94431DFF91EF91BF91AF919F9151
:103B10008F917F916F915F914F913F912F910F9076
:103B20000FBE0F901F9018951F920F920FB60F9215
:103B300011242F933F934F935F936F937F938F93B2
:103B40009F93AF93BF93EF93FF930E94431DFF9109
:103B5000EF91BF91AF919F918F917F916F915F9105
:103B60004F913F912F910F900FBE0F901F9018957E
:103B70001F93CF93DF93EC01162F61E0812F0E94FA
:103B8000080361E0812F0E944003812F90E0FC0137
:103B9000E358FF4FE491E88BFC01EF56FF4FE491AF
:103BA000F0E0EE0FFF1FE155FF4F85919491898B57
:103BB0009A8BDF91CF911F9108951F93CF93DF933D
:103BC000EC01162F60E0812F0E9408038B8D81FD90
:103BD00004C061E0812F0E9440031C87812F90E088
:103BE000FC01E358FF4FE491ED87FC01EF56FF4FD6
:103BF000E491F0E0EE0FFF1FEB55FF4F859194919C
:103C00008E879F87DF91CF911F910895FF920F9329
:103C10001F93CF93DF93EC01F62E522F1B821A8253
:103C200008EE13E020E030E00C831D832E833F83F9
:103C300084E591E0998388831C8A1B8A1E8A1D8AE9
:103C4000188E1F8A1A8E198E8B8D8E7F50FB81F9EC
:103C50008B8F642FCE010E94B81D6F2DCE01DF9196
:103C6000CF911F910F91FF900C94DD1DFF920F9348
:103C70001F93CF93DF93EC011A8E198E188E1F8A33
:103C80001E8A1D8A1C8A1B8AA0E0B0E02CE0F22E5E
:103C9000FA9EC001FB9E900D1124FC01ED53FF4FD5
:103CA00005911591259134910417150726073707BB
:103CB000E9F4FC01E953FF4F259134912B8B3C8BA8
:103CC000FC01E753FF4F259134912D8B3E8BFC0176
:103CD000E553FF4F259134912F8B388F83539F4F9E
:103CE000FC0185919491898F9A8F05C01196AD3012
:103CF000B10509F0CDCF8F89988D892B09F449C082
:103D00003C85363108F041C040916800383068F099
:103D100081E090E03E3010F480E090E021E030E07F
:103D200001C0220F8A95EAF701C024E0242B2093DA
:103D300068003C85383038F03E3040F0363148F08D
:103D4000E0E0F0E008C0EDE6F0E005C0EBE6F0E012
:103D500002C0ECE6F0E04081383040F481E090E0D1
:103D6000282F01C0220F3A95EAF70DC0832F90E06B
:103D70003E3010F4089701C00E9721E030E001C0FA
:103D8000220F8A95EAF7242B2083898D9A8D0E9431
:103D9000491CCE01DF91CF911F910F91FF900C94A0
:103DA000501CFC014485463150F5483028F04E3017
:103DB00030F4EBE6F0E005C0EDE6F0E002C0ECE642
:103DC000F0E05081483040F481E090E0042E01C0E2
:103DD000880F0A94EAF710C0242F30E04E3018F410
:103DE0002850310902C02E50310981E090E0022EA6
:103DF00001C0880F0A94EAF780958523808308958F
:103E000024E531E0FC01318320830C94D11ECF9254
:103E1000DF92EF92FF920F931F93CF93DF93EC010A
:103E20008B016115710521F1181619060CF093C06C
:103E3000863491050CF092C084E690E08C1B9D0BBB
:103E40008DC0C8018B5B9F4F8B389105A0F4CD3995
:103E50008FEFD80724F0CE018C599F4F04C08CE916
:103E60009FEF8C1B9D0B24E630E0201B310B05C01F
:103E700020E030E002C09801CE0197FF03C0919589
:103E8000819591096C01CC0CDD1CC80ED91E8FEFF9
:103E9000C816D1041CF0CC24CA94D12C37FF03C01F
:103EA0003195219531097901EE0CFF1CE20EF31ECC
:103EB0008FEFE816F1041CF0EE24EA94F12CB60121
:103EC00085E00E947D02B70186E00E947D0260E6E7
:103ED00071E08FE992E00E940A0B4AE050E0B601DF
:103EE0008FE992E00E94B10C6DE671E08FE992E0FB
:103EF0000E940A0B4AE050E0B7018FE992E00E946D
:103F0000B90C1C161D0634F460E084E00E9408031E
:103F100061E005C061E084E00E94080360E084E0A5
:103F20000E9440031016110634F460E087E00E94FE
:103F3000080361E005C061E087E00E94080360E0DB
:103F400087E0DF91CF911F910F91FF90EF90DF906D
:103F5000CF900C94400397FD74CF8DCF98018DCFF7
:103F6000CF93DF93D82FC62F62E088EB93E00E94B7
:103F7000D61C6D2F660F660F6C5F88EB93E00E9476
:103F8000D61C6C2F6C5F88EB93E00E94D61C63E01C
:103F900088EB93E0DF91CF910C94D61C61E085E033
:103FA0000E94080361E086E00E94080385B5877FD0
:103FB00085BD84B5826084BD84B5816084BD84B5CF
:103FC000806884BD84B58F7B84BD84B5806284BDE8
:103FD00084B58F7E84BD6AE771E08FE992E00C942E
:103FE0005B0B17B880917C008F7780937C00809169
:103FF0007C008F7B80937C0080917A00846080932A
:104000007A0080917A008D7F80937A0080917A0087
:104010008E7F80937A0080917A00806880937A0006
:1040200080917C00877F80937C0080917C008B7FD7
:1040300080937C0080917C008D7F80937C008091B8
:104040007C008E7F80937C0080917E0081608093D5
:104050007E0080917A00806480937A0080917A005B
:1040600086FDFCCF6CE871E08FE992E00C945B0B6D
:1040700040E051EE60E070E08FE992E00E94250898
:1040800040E855E260E070E088EB93E00E94361E65
:104090006EE971E08FE992E00E945B0B66ED71E0E2
:1040A0008FE992E00E945B0B6FED71E08FE992E087
:1040B0000E945B0B0E94CE1F61EF71E08FE992E0DE
:1040C0000E945B0B0E94F11F78946CE271E080E02B
:1040D00090E00C94EE0183339105C9F13CF48133F7
:1040E000910561F0C29709F04BC01DC08533910561
:1040F000F1F1ACF1C79709F043C03CC08091AA032D
:1041000081608093AA0363E072E08FE992E00E94ED
:104110005B0B60E172E08FE992E00E945B0B81E053
:104120008093A9032DC08091AA038E708093AA0367
:1041300060E272E08FE992E00E945B0B6EE272E057
:104140008FE992E00E945B0B1092A90319C0809145
:10415000AA0382608093AA036FE372E00DC080918E
:10416000AA038D708093AA036CE472E005C06AE52F
:1041700072E002C067E672E08FE992E00E945B0B9A
:104180006091AB038091AA030C94B01F0F931F930F
:10419000CF93DF93FC012181828190E030E8239F5F
:1041A000800D911D11244381248130E050E8459F0A
:1041B000200D311D1124EC01C85CD1098901085C76
:1041C000110964E772E08FE992E00E940A0B4AE06D
:1041D00050E0BE018FE992E00E94B10C67E872E006
:1041E0008FE992E00E940A0B4AE050E0B8018FE9A3
:1041F00092E00E94B90CB801CE01DF91CF911F91DE
:104200000F910C94071F8091D4038B5F853618F4AF
:104210008093D40302C01092D4038091D4030895F4
:10422000CF92DF92EF92FF92CF93DF9388EB93E0F0
:104230000E94231C892B09F46BC065E070E080E0CC
:1042400090E00E94EE0188EB93E00E94D61B8093E1
:10425000B0034AE050E0682F8FE992E00E94390CE9
:104260008091B0038230C9F581E090E01EC04AE041
:1042700050E08FE992E00E94B10C6AE671E08FE9AC
:1042800092E00E940A0BE091B603F091B703E0556B
:10429000FC4F4AE050E060818FE992E00E94390CC7
:1042A0008091B6039091B70301969093B7038093E2
:1042B000B60388EB93E00E94231C892B71F0C09118
:1042C000B603D091B70388EB93E00E94D61BC0558C
:1042D000DC4F8883833009F057C08091B6039091FA
:1042E000B7038230910531F48091B10390E00E94D0
:1042F0006B203EC0059729F480EB93E00E94C62016
:1043000037C06CE872E08FE992E00E945B0B30C02E
:104310000E94B2016B017C018091AC039091AD03CE
:10432000A091AE03B091AF03B701A601481B590B92
:104330006A0B7B0B80910C0190910D01A0910E01F5
:10434000B0910F0184179507A607B70788F40E945C
:1043500003218093AB03682F8091AA030E94B01FB2
:10436000C092AC03D092AD03E092AE03F092AF03E3
:1043700065E070E080E090E0DF91CF91FF90EF90FA
:10438000DF90CF900C94EE016091B6037091B7036B
:10439000663071050CF46BCFA0CF20E043E062E003
:1043A00088EB93E00C94061E88EB93E00C94001FBE
:1043B00025E030E080E090E040917A004064409356
:1043C0007A0040917A0046FDFCCF409178005091F0
:1043D0007900840F951F45E84A95F1F700002150B8
:1043E000310951F721E030E0893C994014F420E094
:1043F00030E0C90108955058BB27AA270ED075C1D7
:1044000066D130F06BD120F031F49F3F11F41EF4EF
:104410005BC10EF4E095E7FB51C1E92F77D180F342
:10442000BA17620773078407950718F071F49EF5B1
:104430008FC10EF4E0950B2EBA2FA02D0B01B90100
:1044400090010C01CA01A0011124FF27591B99F00A
:10445000593F50F4503E68F11A16F040A22F232F16
:10446000342F4427585FF3CF469537952795A79566
:10447000F0405395C9F77EF41F16BA0B620B730B0D
:10448000840BBAF09150A1F0FF0FBB1F661F771F7E
:10449000881FC2F70EC0BA0F621F731F841F48F433
:1044A000879577956795B795F7959E3F08F0B3CFB9
:1044B0009395880F08F09927EE0F979587950895A3
:1044C000D9D008F481E008950CD00FC107D140F095
:1044D000FED030F021F45F3F19F0F0C0511139C126
:1044E000F3C014D198F39923C9F35523B1F3951B65
:1044F000550BBB27AA2762177307840738F09F5F05
:104500005F4F220F331F441FAA1FA9F333D00E2E73
:104510003AF0E0E830D091505040E695001CCAF7E0
:1045200029D0FE2F27D0660F771F881FBB1F2617A5
:1045300037074807AB07B0E809F0BB0B802DBF0178
:10454000FF2793585F4F2AF09E3F510568F0B6C091
:1045500000C15F3FECF3983EDCF386957795679555
:10456000B795F7959F5FC9F7880F911D9695879529
:1045700097F90895E1E0660F771F881FBB1F621748
:1045800073078407BA0720F0621B730B840BBA0B06
:10459000EE1F88F7E095089504D06894B111D9C052
:1045A0000895BCD088F09F5790F0B92F9927B75144
:1045B000A0F0D1F0660F771F881F991F1AF0BA95E7
:1045C000C9F712C0B13081F0C3D0B1E00895C0C0C6
:1045D000672F782F8827B85F39F0B93FCCF38695DD
:1045E00077956795B395D9F73EF49095809570953A
:1045F00061957F4F8F4F9F4F0895E89409C097FBB7
:104600003EF490958095709561957F4F8F4F9F4FA9
:104610009923A9F0F92F96E9BB279395F6958795ED
:1046200077956795B795F111F8CFFAF4BB0F11F4B0
:1046300060FF1BC06F5F7F4F8F4F9F4F16C0882357
:1046400011F096E911C0772321F09EE8872F762F8D
:1046500005C0662371F096E8862F70E060E02AF0CE
:104660009A95660F771F881FDAF7880F96958795BA
:1046700097F90895990F0008550FAA0BE0E8FEEF8F
:1046800016161706E807F907C0F012161306E40716
:10469000F50798F0621B730B840B950B39F40A260F
:1046A00061F0232B242B252B21F408950A2609F4ED
:1046B000A140A6958FEF811D811D089597F99F67F1
:1046C00080E870E060E008959FEF80EC089500249A
:1046D0000A941616170618060906089500240A9467
:1046E00012161306140605060895092E0394000CED
:1046F00011F4882352F0BB0F40F4BF2B11F460FF7C
:1047000004C06F5F7F4F8F4F9F4F089557FD9058A4
:10471000440F551F59F05F3F71F04795880F97FB85
:10472000991F61F09F3F79F087950895121613063F
:104730001406551FF2CF4695F1DF08C0161617066E
:104740001806991FF1CF86957105610508940895A3
:10475000E894BB2766277727CB0197F908958ADF6E
:1047600008F48FEF08950BD0C0CFB1DF28F0B6DF8B
:1047700018F0952309F0A2CFA7CF1124EACFC6DF06
:10478000A0F3959FD1F3950F50E0551F629FF00164
:10479000729FBB27F00DB11D639FAA27F00DB11DBD
:1047A000AA1F649F6627B00DA11D661F829F222746
:1047B000B00DA11D621F739FB00DA11D621F839FCD
:1047C000A00D611D221F749F3327A00D611D231FA3
:1047D000849F600D211D822F762F6A2F11249F57F1
:1047E00050408AF0E1F088234AF0EE0FFF1FBB1F14
:1047F000661F771F881F91505040A9F79E3F5105B3
:1048000070F05CCFA6CF5F3FECF3983EDCF386956B
:1048100077956795B795F795E7959F5FC1F7FE2B5D
:10482000880F911D9695879597F9089523DF880B3A
:10483000990B08950E948724A59F900DB49F900D19
:10484000A49F800D911D11240895DB018F939F93E8
:104850000E941A24BF91AF91A29F800D911DA39F2A
:10486000900DB29F900D1124089597FB072E16F41A
:10487000009407D077FD09D00E94932407FC05D04F
:104880003EF4909581959F4F0895709561957F4F67
:104890000895A1E21A2EAA1BBB1BFD010DC0AA1F81
:1048A000BB1FEE1FFF1FA217B307E407F50720F099
:1048B000A21BB30BE40BF50B661F771F881F991F14
:1048C0001A9469F760957095809590959B01AC015D
:1048D000BD01CF010895052E97FB16F4009407D073
:1048E00057FD0DD00E94492407FC09D07EF4909515
:1048F0008095709561957F4F8F4F9F4F089550958C
:104900004095309521953F4F4F4F5F4F0895A29F9F
:10491000B001B39FC001A39F01D0B29F700D811D54
:104920001124911D0895AA1BBB1B51E107C0AA1FAA
:10493000BB1FA617B70710F0A61BB70B881F991F40
:104940005A95A9F780959095BC01CD010895EE0F79
:10495000FF1F0590F491E02D09948F929F92AF92E2
:10496000BF92CF92DF92EF92FF92CF93DF93EC0151
:10497000688179818A819B81611571058105910525
:1049800021F464E279ED8BE597E02DE133EF41E02E
:1049900050E00E946B2449015A019B01AC01A7EA37
:1049A000B1E40E941A246B017C01ACEEB4EFA501C6
:1049B00094010E948A26C60ED71EE81EF91EF7FE35
:1049C00006C081E0C81AD108E10880E8F80AC88268
:1049D000D982EA82FB82E894F7F8B601C701DF9139
:1049E000CF91FF90EF90DF90CF90BF90AF909F90CE
:1049F0008F9008950E94AD24089587E091E00E9471
:104A0000AD24089560930701709308018093090114
:104A100090930A0108951F93FC0199278827BC01F0
:104A2000E89411911032E9F3193010F01E30C8F3F8
:104A30001B3251F01D3249F4689406C00E942426AE
:104A4000610F711D811D911D119110531A30B0F32A
:104A50003EF490958095709561957F4F8F4F9F4F55
:104A60001F910895911140C1803219F089508550ED
:104A7000D0F708959111089581548A5108F4805E09
:104A8000855A08959111089581568A5108F48052EB
:104A900085580895FB01DC0104C08D9101908019B7
:104AA00021F441505040C8F7881B990B0895FB0131
:104AB000DC0102C001900D9241505040D8F708959A
:104AC0006817790768F4FB01DC01E40FF51FA40FF8
:104AD000B51F02C002900E9241505040D8F7089581
:104AE0000C945725FC018191861721F08823D9F772
:104AF000992708953197CF010895FB01DC018D912D
:104B0000019080190110D9F3990B0895FB01DC0184
:104B100001900D920020E1F70895FB01DC01415066
:104B2000504030F08D910190801919F40020B9F7B0
:104B3000881B990B0895FB01DC014150504048F05F
:104B400001900D920020C9F701C01D9241505040C4
:104B5000E0F70895FC0181E090E00190061609F469
:104B6000CF010020D1F701970895FB015191552302
:104B7000A9F0BF01DC014D9145174111E1F759F44E
:104B8000CD010190002049F04D9140154111C9F32C
:104B9000FB014111EFCF81E090E001970895FB0107
:104BA0009F01E8944230C4F04532B4F44A3029F40D
:104BB00097FB1EF4909581959F4F642F77270E9455
:104BC0009324805D8A330CF0895D8193CB0100973B
:104BD000A1F716F45DE251931082C9010C94772677
:104BE000FA01CF93FF93EF93223044F1253234F54D
:104BF000C22FE894CA3049F497FB3EF49095809513
:104C0000709561957F4F8F4F9F4F2C2F33274427EF
:104C10005527FF93EF930E944924EF91FF91605D28
:104C20006A330CF0695D6193B901CA01605070404C
:104C30008040904051F716F4CDE2C19310828F91DD
:104C40009F91CF910C947726592F482F372F262FDD
:104C5000660F771F881F991F660F771F881F991F80
:104C6000620F731F841F951F660F771F881F991F80
:104C70000895FA01CF93FF93EF932230CCF02532C1
:104C8000BCF4C22F2C2F332744275527FF93EF93D3
:104C90000E944924EF91FF91605D6A330CF0695DD9
:104CA0006193B901CA01605070408040904051F753
:104CB00010828F919F91CF910C947726FB019F01D9
:104CC000423074F0453264F4642F77270E949324B5
:104CD000805D8A330CF0895D8193CB010097A1F749
:104CE0001082C9010C947726992788270895DC0142
:104CF000FC01672F71917723E1F7329704C07C9113
:104D00006D9370836291AE17BF07C8F30895B7FF24
:104D10000C941A240E941A24821B930B089511E00C
:104D2000C6E6D1E004C0FE010E94A9242296C8363E
:084D3000D107C9F7F894FFCF89
:104D38000000D90380000101000000FFE803000023
:104D4800000000002507750AC706F606DA061A07E6
:104D580000000000D51B750AD51BD51BD51BD51B1C
:104D680000000000DB0900000000D51B6E616E002A
:104D7800696E66006F76660000000000D51B750A34
:104D880000000000D61C750A231CD61BF91B141C36
:104D98004D6F746F722050574D413A20002C4D6F63
:104DA800746F722050574D423A0050574D2073652A
:104DB80074757020444F4E452E2E2E0041444320DA
:104DC800736574757020444F4E452E2E2E00507218
:104DD8006F6A65746F20726F62C3B4207573616EF9
:104DE800646F20416E64726F6964204A6F797374CE
:104DF80069636B20425420636F6D6D616E646572E8
:104E08002056332E300053657475702E2E2E0045B3
:104E18006E7465722050574D20696E69742E2E2E5F
:104E280000456E7465722041444320696E69742E92
:104E38002E2E00427574746F6E5F313A204F4E000B
:104E48004155544F206D6F6465204F4E2E2E2E0015
:104E5800427574746F6E5F313A204F464600415573
:104E6800544F206D6F6465204F46462E2E2E00420B
:104E78007574746F6E5F323A204F4E0042757474C9
:104E88006F6E5F323A204F464600427574746F6EFB
:104E98005F333A204F4E00427574746F6E5F343A38
:104EA800204F4E004A6F79737469636B2064617494
:104EB800613A20583A20002C20593A002A2A2A2AF6
:024EC8000000E8
:00000001FF
