:100000000C94B2000C94DA000C94DA000C945202B6
:100010000C9476020C949A020C94DA000C94DA0098
:100020000C94DA000C94DA000C94DA000C94DA00E8
:100030000C94DA000C94DA000C94DA000C94DA00D8
:100040000C949F150C94DA000C949D070C94E00717
:100050000C94DA000C94DA000C94DA000C94DA00B8
:100060000C94DA000C94DA0000C2010001001100C7
:1000700011000C0000E100000A002500250021000D
:10008000009600001900390039003600127A00008D
:100090001F004600460044008070000022004D0012
:1000A0004D004A00004B00003600750075007200DC
:1000B000403800004A009C009C0099008025000008
:1000C0007200EC00EC00E900C0120000E900DA0167
:1000D000DA01D70160090000D701B603B603B30304
:1000E000B0040000B3036E076E076B0758020000F0
:1000F0006E07DC0EDC0ED80E2C010000DC0EC11DDC
:10010000C11DBE1D0000000700020100000304061F
:1001100000000000000000000102040810204080E0
:100120000102040810200102040810200404040441
:100130000404040402020202020203030303030391
:100140000000000023002600290000000000250018
:1001500028002B0000000000240027002A00D306FE
:10016000BF09DA0611241FBECFEFD8E0DEBFCDBF36
:1001700012E0A0E0B1E0E0ECFBE302C005900D92DC
:10018000A038B107D9F713E0A0E8B2E001C01D9292
:10019000A83AB107E1F711E0C2E6D1E004C0229726
:1001A000FE010E94601CCE35D107C9F70E947A1566
:1001B0000C94D31D0C9400002091C2023091C30214
:1001C00028173907C1F49091800280918102981715
:1001D00091F0E0918002F0E0EE57FD4F8081209198
:1001E000800230E02F5F3F4F2F7333272093800230
:1001F000282F30E002C02FEF3FEFC9010895209172
:10020000C2023091C3022817390781F4909180020D
:1002100080918102981751F0E0918002F0E0EE5752
:10022000FD4F2081332727FD309502C02FEF3FEF90
:10023000C90108952091C2023091C30228173907DD
:1002400039F48FB7F89410928102109280028FBF18
:1002500008952091C2023091C3022817390779F41A
:10026000809181022091800290E0805C9F4F821BF0
:10027000910960E470E00E94141C9C0102C020E01F
:1002800030E0C9010895DC015196ED91FC9152973F
:10029000208150968C91809582238083089520E060
:1002A00001972FEF8F3F9207D9F708952091C2024F
:1002B0003091C3022817390789F0FC01238D2E7F66
:1002C000238F2FB7F894109281021092800290939E
:1002D000C3028093C2022FBF81E0089580E0089599
:1002E000EF92FF920F931F93CF93DF93EC018B8DCF
:1002F000EE85FF859D8581FF04C08081892329F4D7
:1003000045C08081892309F041C08B899C890E9466
:100310004F0108E010E0EE24E394F12C8D899E89D2
:100320000E944F01EE85FF8580819D85892311F014
:10033000FE2803C08E2D8095F822EE0C0150110985
:1003400069F78F89988D0E944F018B8D81FDF09404
:10035000809181022091800290E001968F7399270D
:1003600030E08217930779F0E0918102F0E0EE57D8
:10037000FD4FF0828091810290E001968F73992762
:100380008093810203C08B8D81608B8FDF91CF9131
:100390001F910F91FF90EF900895611102C00C948E
:1003A0004301DC015196ED91FC91529720815096CA
:1003B0008C91282B20830895DF92EF92FF920F9368
:1003C0001F93CF93DF93EC01E62E898D9A8D892BB5
:1003D00039F481E090E09B838A8320E030E049C0DB
:1003E000DFB6F8946B8D66956170CE010E94CD01E9
:1003F000898D9A8D05960E944F018B8D08E010E043
:10040000FF24F39481FF17C08F2D8E2121F0CE01A0
:100410000E94430104C061E0CE010E94CD01898D9C
:100420009A8D0E944F01FF0C0150110969F7CE010E
:100430000E94430117C08F2D8E2129F061E0CE016B
:100440000E94CD0103C0CE010E944301898D9A8D87
:100450000E944F01FF0C0150110969F761E0CE01C4
:100460000E94CD01DFBE898D9A8D0E944F0121E04F
:1004700030E0C901DF91CF911F910F91FF90EF9074
:10048000DF900895FC01A685B7859C918585892319
:1004900008958091C2029091C302009711F00C94CC
:1004A000700108951F920F920FB60F9211242F938F
:1004B0003F934F935F936F937F938F939F93AF93EC
:1004C000BF93EF93FF930E944902FF91EF91BF9179
:1004D000AF919F918F917F916F915F914F913F91DC
:1004E0002F910F900FBE0F901F9018951F920F9293
:1004F0000FB60F9211242F933F934F935F936F93F7
:100500007F938F939F93AF93BF93EF93FF930E943B
:100510004902FF91EF91BF91AF919F918F917F9190
:100520006F915F914F913F912F910F900FBE0F9060
:100530001F9018951F920F920FB60F9211242F93B0
:100540003F934F935F936F937F938F939F93AF935B
:10055000BF93EF93FF930E944902FF91EF91BF91E8
:10056000AF919F918F917F916F915F914F913F914B
:100570002F910F900FBE0F901F9018951F93CF9340
:10058000DF93EC01162F61E0812F0E943F1761E09D
:10059000812F0E947717812F90E0FC01E85EFE4FCB
:1005A000E491E88BFC01E45DFE4FE491F0E0EE0F96
:1005B000FF1FE65BFE4F85919491898B9A8BDF91AB
:1005C000CF911F9108951F93CF93DF93EC01162FC6
:1005D00060E0812F0E943F178B8D81FD04C061E098
:1005E000812F0E9477171C87812F90E0FC01E85E25
:1005F000FE4FE491ED87FC01E45DFE4FE491F0E0F5
:10060000EE0FFF1FE05CFE4F859194918E879F87D0
:10061000DF91CF911F910895FF920F931F93CF9376
:10062000DF93EC01F62E522F1B821A8208EE13E0A4
:1006300020E030E00C831D832E833F838FE091E028
:10064000998388831C8A1B8A1E8A1D8A188E1F8A9A
:100650001A8E198E8B8D8E7F50FB81F98B8F642FB4
:10066000CE010E94BE026F2DCE01DF91CF911F916E
:100670000F91FF900C94E302FF920F931F93CF937F
:10068000DF93EC011A8E198E188E1F8A1E8A1D8A1E
:100690001C8A1B8AA0E0B0E02CE0F22EFA9EC0017A
:1006A000FB9E900D1124FC01E859FF4F0591159117
:1006B000259134910417150726073707E9F4FC0143
:1006C000E459FF4F259134912B8B3C8BFC01E2596F
:1006D000FF4F259134912D8B3E8BFC01E059FF4F4C
:1006E000259134912F8B388F8E589F4FFC01859127
:1006F0009491898F9A8F05C01196AD30B10509F09C
:10070000CDCF8F89988D892B09F449C03C8536312E
:1007100008F041C040916800383068F081E090E016
:100720003E3010F480E090E021E030E001C0220F84
:100730008A95EAF701C024E0242B209368003C85C9
:10074000383038F03E3040F0363148F0E0E0F0E04C
:1007500008C0EDE6F0E005C0EBE6F0E002C0ECE634
:10076000F0E04081383040F481E090E0282F01C073
:10077000220F3A95EAF70DC0832F90E03E3010F437
:10078000089701C00E9721E030E001C0220F8A9542
:10079000EAF7242B2083898D9A8D0E944F01CE0188
:1007A000DF91CF911F910F91FF900C945601FC01A6
:1007B0004485463150F5483028F04E3030F4EBE6B1
:1007C000F0E005C0EDE6F0E002C0ECE6F0E05081BC
:1007D000483040F481E090E0042E01C0880F0A9474
:1007E000EAF710C0242F30E04E3018F428503109B9
:1007F00002C02E50310981E090E0022E01C0880F26
:100800000A94EAF780958523808308952FE031E0EC
:10081000FC01318320830C94D703CF92DF92EF92B7
:10082000FF920F931F93CF93DF93EC018B01611520
:10083000710521F1181619060CF093C08634910544
:100840000CF092C084E690E08C1B9D0B8DC0C8011B
:100850008B5B9F4F8B389105A0F4CD398FEFD80774
:1008600024F0CE018C599F4F04C08CE99FEF8C1B64
:100870009D0B24E630E0201B310B05C020E030E06A
:1008800002C09801CE0197FF03C09195819591090F
:100890006C01CC0CDD1CC80ED91E8FEFC816D1041C
:1008A0001CF0CC24CA94D12C37FF03C0319521957C
:1008B00031097901EE0CFF1CE20EF31E8FEFE816F2
:1008C000F1041CF0EE24EA94F12CB60185E00E94BC
:1008D000B416B70186E00E94B4166BE271E080EFB7
:1008E00092E00E94AA0A4AE050E0B60180EF92E04E
:1008F0000E94510C68E371E080EF92E00E94AA0A26
:100900004AE050E0B70180EF92E00E94590C1C16BB
:100910001D0634F460E084E00E943F1761E005C0EA
:1009200061E084E00E943F1760E084E00E94771756
:100930001016110634F460E087E00E943F1761E072
:1009400005C061E087E00E943F1760E087E0DF912B
:10095000CF911F910F91FF90EF90DF90CF900C946B
:10096000771797FD74CF8DCF98018DCFCF93DF93FD
:10097000D82FC62F62E083ED92E00E94DC016D2F3C
:10098000660F660F6C5F83ED92E00E94DC016C2FB6
:100990006C5F83ED92E00E94DC0163E083ED92E006
:1009A000DF91CF910C94DC0161E085E00E943F175C
:1009B00061E086E00E943F1785B5877F85BD84B5DD
:1009C000826084BD84B5816084BD84B5806884BD47
:1009D00084B58F7B84BD84B5806284BD84B58F7EF1
:1009E00084BD65E471E080EF92E00C94FB0A17B8D7
:1009F00080917C008F7780937C0080917C008F7B3E
:100A000080937C0080917A00846080937A0080914A
:100A10007A008D7F80937A0080917A008E7F809318
:100A20007A0080917A00806880937A0080917C00BF
:100A3000877F80937C0080917C008B7F80937C00FB
:100A400080917C008D7F80937C0080917C008E7FE4
:100A500080937C0080917E00816080937E008091F5
:100A60007A00806480937A0080917A0086FDFCCFC2
:100A700067E571E080EF92E00C94FB0A40E051EEF4
:100A800060E070E080EF92E00E945F0840E855E28D
:100A900060E070E083ED92E00E943C0369E671E063
:100AA00080EF92E00E94FB0A61EA71E080EF92E041
:100AB0000E94FB0A6AEA71E080EF92E00E94FB0A62
:100AC0000E94D4046CEB71E080EF92E00E94FB0A7C
:100AD0000E94F70478946CE271E080E090E00C945E
:100AE000251683339105C9F13CF48133910561F0FA
:100AF000C29709F04BC01DC085339105F1F1ACF1EF
:100B0000C79709F043C03CC08091C50281608093C3
:100B1000C5026EEC71E080EF92E00E94FB0A6BED83
:100B200071E080EF92E00E94FB0A81E08093C402B2
:100B30002DC08091C5028E708093C5026BEE71E06E
:100B400080EF92E00E94FB0A69EF71E080EF92E093
:100B50000E94FB0A1092C40219C08091C5028260F3
:100B60008093C5026AE072E00DC08091C5028D706D
:100B70008093C50267E172E005C065E272E002C0E1
:100B800062E372E080EF92E00E94FB0A6091C6028D
:100B90008091C5020C94B6040F931F93CF93DF93FB
:100BA000FC012181828190E030E8239F800D911D1E
:100BB00011244381248130E050E8459F200D311DF0
:100BC0001124EC01C85CD1098901085C11096FE3AB
:100BD00072E080EF92E00E94AA0A4AE050E0BE0173
:100BE00080EF92E00E94510C62E572E080EF92E0AB
:100BF0000E94AA0A4AE050E0B80180EF92E00E9409
:100C0000590CB801CE01DF91CF911F910F910C9437
:100C10000D048091EF028B5F853618F48093EF020C
:100C200002C01092EF028091EF020895CF92DF92FE
:100C3000EF92FF92CF93DF9383ED92E00E94290120
:100C4000892B09F46BC065E070E080E090E00E94C1
:100C5000251683ED92E00E94DC008093CB024AE0EF
:100C600050E0682F80EF92E00E94D90B8091CB0278
:100C70008230C9F581E090E01EC04AE050E080EF8C
:100C800092E00E94510C65E371E080EF92E00E94D7
:100C9000AA0AE091D102F091D202E553FD4F4AE059
:100CA00050E0608180EF92E00E94D90B8091D102E8
:100CB0009091D20201969093D2028093D10283ED5B
:100CC00092E00E942901892B71F0C091D102D0914C
:100CD000D20283ED92E00E94DC00C553DD4F888391
:100CE000833009F057C08091D1029091D2028230B6
:100CF000910531F48091CC0290E00E9471053EC0D4
:100D0000059729F48BEC92E00E94CC0537C067E58B
:100D100072E080EF92E00E94FB0A30C00E94E91569
:100D20006B017C018091C7029091C802A091C90219
:100D3000B091CA02B701A601481B590B6A0B7B0B85
:100D40008091000190910101A0910201B0910301F5
:100D500084179507A607B70788F40E9409068093B1
:100D6000C602682F8091C5020E94B604C092C702D5
:100D7000D092C802E092C902F092CA0265E070E027
:100D800080E090E0DF91CF91FF90EF90DF90CF90E7
:100D90000C9425166091D1027091D20266307105D3
:100DA0000CF46BCFA0CF20E043E062E083ED92E053
:100DB0000C940C0383ED92E00C94060425E030E0E3
:100DC00080E090E040917A00406440937A00409146
:100DD0007A0046FDFCCF4091780050917900840F55
:100DE000951F45E84A95F1F700002150310951F768
:100DF00021E030E0893C994014F420E030E0C90162
:100E00000895FC0184859585FC01E05CFF4F2081FD
:100E10003181FC01EE5BFF4F80819181281B390BF2
:100E20002F733327C9010895FC0184859585FC0142
:100E3000E05CFF4F40815181FC01EE5BFF4F208160
:100E400031814217530741F00190F081E02DE80F06
:100E5000F91F208130E002C02FEF3FEFC901089554
:100E6000FC0184859585FC01E05CFF4F4081518148
:100E7000FC01EE5BFF4F208131814217530781F067
:100E8000A081B181A80FB91F8C91208131812F5F82
:100E90003F4F2F73332731832083282F30E002C048
:100EA0002FEF3FEFC9010895FC0181A1882329F0AC
:100EB000A489B5898C9186FFFBCF11A20895CF93A9
:100EC000DF93FC0126853785D901A05CBF4F8D914A
:100ED0009C91119701968F739927E901CE5BDF4FA3
:100EE0004881598184179507D9F30D90BC91A02DA5
:100EF000A20FB31F6C93A685B785A05CBF4F119658
:100F00009C938E93A689B7892C9181E090E0078C01
:100F100002C0880F991F0A94E2F7282B2C9381E0D6
:100F200081A30488F589E02D80818064808381E03D
:100F300090E0DF91CF91089508951F920F920FB620
:100F40000F9211242F933F934F938F939F93EF937F
:100F5000FF938091C00082FD1CC04091C60080912B
:100F600096039091970301968F7399272091980388
:100F7000309199038217930771F0E0919603F091F5
:100F80009703EA5AFC4F408390939703809396030C
:100F900002C08091C600FF91EF919F918F914F9178
:100FA0003F912F910F900FBE0F901F90189580EFDB
:100FB00092E00E940107892B11F00C949C07089580
:100FC0001F920F920FB60F9211242F933F938F937E
:100FD0009F93EF93FF93209152033091530380919D
:100FE0005403909155032817390731F48091C100BB
:100FF0008F7D8093C10014C0E0915403F09155039C
:10100000EE5EFC4F20818091540390915503019630
:101010008F73992790935503809354032093C600B0
:10102000FF91EF919F918F913F912F910F900FBE64
:101030000F901F9018958F929F92AF92BF92CF9270
:10104000DF92EF92FF920F931F93CF93DF93CDB771
:10105000DEB7FC011382128288EE93E0A0E0B0E0DC
:1010600084839583A683B78380E692E0918380830F
:101070007587648757874687318B208B138B028B4C
:10108000F58AE48AD78AC68AB18EA08E938E828E24
:101090008F85848F8889858F8989868F8A89878FB4
:1010A0008B8980A3DF91CF911F910F91FF90EF90DB
:1010B000DF90CF90BF90AF909F908F900895CF9288
:1010C000DF92EF92FF92CF93DF93EC016A017B01F5
:1010D000411581EE580761057105F9F0EC89FD892C
:1010E00081E090E008A002C0880F991F0A94E2F7FF
:1010F000808360E079E08DE390E0A70196010E9493
:10110000281C2150310941095109569547953795B9
:101110002795211580E1380798F0EC89FD89108228
:1011200060E874E88EE190E0A70196010E94281C17
:101130002150310941095109569547953795279511
:10114000E889F9893083EA89FB89208319A2EE892D
:10115000FF89408181E090E09C010C8C02C0220F4D
:10116000331F0A94E2F7422B4083EE89FF894081C6
:101170009C010D8C02C0220F331F0A94E2F7422B10
:101180004083EE89FF8940819C010E8C02C0220FB2
:10119000331F0A94E2F7422B4083EE89FF892081B6
:1011A0000F8C02C0880F991F0A94E2F78095822362
:1011B0008083DF91CF91FF90EF90DF90CF900895E3
:1011C000BF92CF92DF92EF92FF92CF93DF93EC0129
:1011D0006A017B01B22E411581EE58076105710548
:1011E000F9F0EC89FD8981E090E008A002C0880F49
:1011F000991F0A94E2F7808360E079E08DE390E044
:10120000A70196010E94281C21503109410951096A
:101210005695479537952795211580E1380798F021
:10122000EC89FD89108260E874E88EE190E0A70106
:1012300096010E94281C21503109410951095695F7
:10124000479537952795E889F9893083EA89FB899D
:101250002083E88DF98DB082EE89FF89408181E09D
:1012600090E09C010C8C02C0220F331F0A94E2F71D
:10127000422B4083EE89FF8940819C010D8C02C086
:10128000220F331F0A94E2F7422B4083EE89FF8935
:1012900040819C010E8C02C0220F331F0A94E2F79A
:1012A000422B4083EE89FF8920810F8C02C0880F7A
:1012B000991F0A94E2F7809582238083DF91CF9172
:1012C000FF90EF90DF90CF90BF900895CF93DF9382
:1012D000FC0186859785DC01A05CBF4FEC01CE5BED
:1012E000DF4F4D915C911197288139814217530747
:1012F000C1F7A689B7894C9181E090E09C01048CEC
:1013000002C0220F331F0A94E2F7209524232C9366
:10131000A689B7894C919C01058C02C0220F331F0E
:101320000A94E2F7209524232C93A689B7894C913F
:101330009C01068C02C0220F331F0A94E2F720950D
:1013400024232C93A689B7892C91078C02C0880F7F
:10135000991F0A94E2F7809582238C938485958562
:10136000FC01EE5BFF4F20813181FC01E05CFF4F0F
:1013700031832083DF91CF91089581E00895109209
:10138000F3021092F20288EE93E0A0E0B0E08093C6
:10139000F4029093F502A093F602B093F70280E670
:1013A00092E09093F1028093F00286E593E09093AF
:1013B000FD028093FC0282E193E09093FF02809310
:1013C000FE0285EC90E0909301038093000384EC8F
:1013D00090E0909303038093020380EC90E090935D
:1013E00005038093040381EC90E0909307038093BE
:1013F000060382EC90E0909309038093080386EC47
:1014000090E090930B0380930A0384E080930C0395
:1014100083E080930D0387E080930E0385E0809343
:101420000F0381E0809310030895CF92DF92EF9233
:10143000FF920F931F93CF93DF936C01EB017A011F
:10144000E60EF71E00E010E00BC06991D601ED91A9
:10145000FC910190F081E02DC6010995080F191F3C
:10146000CE15DF0591F7C801DF91CF911F910F9144
:10147000FF90EF90DF90CF9008956115710581F096
:10148000DB010D900020E9F7AD0141505109461BE9
:10149000570BDC01ED91FC910280F381E02D099462
:1014A00080E090E00895EF92FF920F931F93CF9307
:1014B000DF937C01EB0100E010E0FE0121966491D6
:1014C000662351F0F701A081B181ED91FC91C70134
:1014D0000995080F191FF1CFC801DF91CF911F9116
:1014E0000F91FF90EF900895AF92BF92CF92DF924D
:1014F000EF92FF920F931F93CF93DF937C016B01C9
:1015000000E010E0C0E0D0E011C0D701ED91FC9107
:10151000A080B180B801C6010E945B12682FC7018C
:10152000F5010995C80FD91F0F5F1F4FD6011496FB
:101530008D919C9115970817190738F3CE01DF910B
:10154000CF911F910F91FF90EF90DF90CF90BF90C0
:10155000AF9008950C943D0ADC01ED91FC9101904F
:10156000F081E02D0994DB01ED91FC911197019040
:10157000F081E02DBC01CD0109940F931F93CF930F
:10158000DF93EC016DE00E94AC0A8C016AE0CE01B1
:101590000E94AC0A9C01200F311FC901DF91CF913D
:1015A0001F910F9108950F931F93CF93DF93EC0139
:1015B0000E94530A8C01CE010E94BD0A9C01200F9B
:1015C000311FC901DF91CF911F910F9108950F93A2
:1015D0001F93CF93DF93EC010E94740A8C01CE011C
:1015E0000E94BD0A9C01200F311FC901DF91CF91DC
:1015F0001F910F9108950F931F93CF93DF93EC01E9
:101600000E943D0A8C01CE010E94BD0A9801280F5C
:10161000391FC901DF91CF911F910F9108950F9349
:101620001F93CF93DF93EC010E94AC0A8C01CE0193
:101630000E94BD0A9C01200F311FC901DF91CF918B
:101640001F910F9108950F931F93CF93DF93EC0198
:101650000E94B30A8C01CE010E94BD0A9C01200F9A
:10166000311FC901DF91CF911F910F9108954F92C2
:101670005F926F927F929F92AF92BF92CF92DF92D2
:10168000EF92FF920F931F93CF93DF93CDB7DEB707
:10169000A1970FB6F894DEBF0FBECDBF5C016A0103
:1016A0007B01922E19A281E0821710F08AE0982E19
:1016B0008E010F5D1F4F492C512C612C712CC701DD
:1016C000B601A30192010E94281C8C2D929E8019C4
:1016D0001124015011098A3014F4805D01C0895C25
:1016E000F801808369017A01C114D104E104F10495
:1016F00031F7B801C5010E943D0AA1960FB6F894D2
:10170000DEBF0FBECDBFDF91CF911F910F91FF9034
:10171000EF90DF90CF90BF90AF909F907F906F90B1
:101720005F904F9008952115310541F4DC01ED9152
:10173000FC910190F081E02D642F09940C94370BFB
:101740000F931F93CF93DF93EC010E94930B8C01B7
:10175000CE010E94BD0A9C01200F311FC901DF91FB
:10176000CF911F910F9108959A01AB0160E070E055
:101770000C94930B0F931F93CF93DF93EC019A017B
:10178000AB0160E070E00E94930B8C01CE010E94DF
:10179000BD0A9801280F391FC901DF91CF911F9110
:1017A0000F9108959A01462F50E060E070E00C948C
:1017B000930B0F931F93CF93DF93EC019A01462F66
:1017C00050E060E070E00E94930B8C01CE010E941B
:1017D000BD0A9801280F391FC901DF91CF911F91D0
:1017E0000F910895CF92DF92EF92FF920F931F9384
:1017F000CF93DF93EC016A017B012115310579F468
:10180000E881F9810190F081E02D642FDF91CF9183
:101810001F910F91FF90EF90DF90CF9009942A30A5
:10182000310519F477FD0EC02AE0B701A601CE01FB
:10183000DF91CF911F910F91FF90EF90DF90CF90AC
:101840000C94370B6DE20E94AC0A8C01442755279B
:10185000BA014C195D096E097F092AE0CE010E9488
:10186000370B080F191FC801DF91CF911F910F91FE
:10187000FF90EF90DF90CF9008950F931F93CF9339
:10188000DF93EC010E94F20B8C01CE010E94BD0A95
:101890009C01200F311FC901DF91CF911F910F9142
:1018A00008959A01AB01662757FD6095762F0C9439
:1018B000F20B0F931F93CF93DF93EC019A01AB01CF
:1018C000662757FD6095762F0E94F20B8C01CE01A2
:1018D0000E94BD0A9801280F391FC901DF91CF91DD
:1018E0001F910F9108957F928F929F92AF92BF9216
:1018F000CF92DF92EF92FF920F931F93CF93DF93DC
:10190000EC016A017B01122F9A01AB01C701B601FC
:101910000E94101C882319F06CE672E032C0460168
:101920005701E894B7F82FEF3FEF4FE75FE7C501A6
:10193000B4010E94101C81110DC02FEF3FEF4FE743
:101940005FE7C501B4010E945A1A18161CF460E73B
:1019500072E017C02FEF3FEF4FE75FE4C701B6011A
:101960000E94A91B18160CF40AC02FEF3FEF4FE797
:101970005FECC701B6010E945A1A87FF12C064E7E4
:1019800072E0CE01DF91CF911F910F91FF90EF9008
:10199000DF90CF90BF90AF909F908F907F900C94EE
:1019A0003D0A20E030E0A901C701B6010E945A1AA1
:1019B00087FF0AC06DE2CE010E94AC0A5C01F7FA13
:1019C000F094F7F8F09402C0A12CB12C00E060E094
:1019D00070E080E09FE307C020E030E040E251E4A7
:1019E0000E945E1A0F5F0113F7CF262F372F482F63
:1019F000592FC701B6010E94F619762E872E982E10
:101A0000C92E0E94CB1AD62EE72EF82E092F0E943F
:101A1000F71A9B01AC01672D782D892D9C2D0E9412
:101A2000F519C62E972E882E792E2AE04D2D5E2D83
:101A30006F2D702FCE010E94370B7C01EA0CFB1C2E
:101A40001123B9F167E671E0CE010E943D0AE80E6C
:101A5000F91E2FC020E030E040E251E46C2D792DDA
:101A6000882D972D0E94AD1B762E072F6C019D2D82
:101A70000E94C61A4B01AA2497FCA094BA2C2AE013
:101A800030E0B501A401CE010E94F20BE80EF91E70
:101A9000C501B4010E94F91A9B01AC01672D702F9A
:101AA0008C2D9D2D0E94F519C62E972E882E792EED
:101AB00011501111CFCFC701DF91CF911F910F911D
:101AC000FF90EF90DF90CF90BF90AF909F908F905E
:101AD0007F9008950C94730C0F931F93CF93DF9313
:101AE000EC010E94730C8C01CE010E94BD0A98018A
:101AF000280F391FC901DF91CF911F910F910895D0
:101B0000FC01808191810C947218CF93DF93EC01DA
:101B100088819981009711F00E94721819821882A9
:101B20001D821C821B821A82DF91CF9108950F9330
:101B30001F93CF93DF93EC018B016F5F7F4F888101
:101B400099810E941119009731F0998388831B8332
:101B50000A8381E001C080E0DF91CF911F910F9156
:101B60000895CF93DF93EC0188819981892B31F01F
:101B70008A819B818617970708F00CC0CE010E94CE
:101B8000970D882349F08C819D81892B19F4E88178
:101B9000F981108281E001C080E0DF91CF9108954A
:101BA000EF92FF920F931F93CF93DF93EC017B0192
:101BB0008A01BA010E94B10D811104C0CE010E94B8
:101BC000850D07C01D830C83B701888199810E9410
:101BD000D21CCE01DF91CF911F910F91FF90EF901A
:101BE0000895DC0111961C921E9213961C921E926F
:101BF000129715961C921E92149716961C926115B8
:101C0000710559F0DB010D900020E9F7AD0141505D
:101C10005109461B570B0C94D00D0895CF93DF93B9
:101C2000EC01FB018617970761F0608171816115F6
:101C3000710529F0448155810E94D00D02C00E9497
:101C4000850DCE01DF91CF910895FC0111821082A4
:101C5000138212821582148216820C940E0ECF9378
:101C6000DF93D82FC92F6115710561F0DB010D904D
:101C70000020E9F7AD0141505109461B570B0E9466
:101C8000D00D02C00E94850D8D2F9C2FDF91CF912A
:101C900008950F931F93CF93DF93CDB7DEB7A1972E
:101CA0000FB6F894DEBF0FBECDBF8C01CB01BA01D9
:101CB000F801118210821382128215821482168218
:101CC00030E0AE014F5F5F4F0E94851DBE016F5F28
:101CD0007F4FC8010E942F0EA1960FB6F894DEBF69
:101CE0000FBECDBFDF91CF911F910F9108950F933C
:101CF0001F93CF93DF93CDB7DEB7A2970FB6F894BB
:101D0000DEBF0FBECDBF8C01CB01BA01F80111823D
:101D100010821382128215821482168230E0AE0184
:101D20004F5F5F4F0E943C1DBE016F5F7F4FC80138
:101D30000E942F0EA2960FB6F894DEBF0FBECDBF45
:101D4000DF91CF911F910F9108950F931F93CF9320
:101D5000DF93CDB7DEB761970FB6F894DEBF0FBE45
:101D6000CDBF8C01CB01F801118210821382128247
:101D700015821482168250E0BE016F5F7F4F0E9471
:101D8000AA1DBE016F5F7F4FC8010E942F0E619692
:101D90000FB6F894DEBF0FBECDBFDF91CF911F917C
:101DA0000F9108950F931F93CF93DF93CDB7DEB7B5
:101DB00062970FB6F894DEBF0FBECDBF8C01CB018A
:101DC000F801118210821382128215821482168207
:101DD00050E0BE016F5F7F4F0E941B1DBE016F5F11
:101DE0007F4FC8010E942F0E62960FB6F894DEBF97
:101DF0000FBECDBFDF91CF911F910F9108950F932B
:101E00001F93CF93DF93CDB7DEB729970FB6F89422
:101E1000DEBF0FBECDBF8C01862FF801118210826C
:101E20001382128215821482168250E0BE016F5F07
:101E30007F4F90E00E94AA1DBE016F5F7F4FC801D7
:101E40000E942F0E29960FB6F894DEBF0FBECDBFAD
:101E5000DF91CF911F910F910895CF93DF9300D021
:101E6000CDB7DEB7FC011182108213821282158277
:101E70001482168269831A82BE016F5F7F4F0E94AF
:101E80002F0E0F900F90DF91CF910895EF92FF9258
:101E90000F931F93CF93DF93EC017B010C811D8186
:101EA0006115710511F480E016C04115510591F0DE
:101EB000040F151FB8010E94B10D8823A1F32881DA
:101EC00039818C819D81B701820F931F0E94D21CA2
:101ED0001D830C8381E0DF91CF911F910F91FF90C3
:101EE000EF900895FB0144815581608171810C94CC
:101EF000460F6115710559F0DB010D900020E9F7DF
:101F0000AD0141505109461B570B0C94460F80E020
:101F10000895CF93DF9300D0CDB7DEB769831A82DF
:101F200041E050E0BE016F5F7F4F0E94460F0F906F
:101F30000F90DF91CF910895EF92FF920F931F932F
:101F4000CF93DF9300D000D0CDB7DEB77C01862FD2
:101F50004AE050E08E010F5F1F4FB80190E00E94F1
:101F60001B1DF80101900020E9F7AF014150510914
:101F7000401B510BB801C7010E94460F0F900F90F4
:101F80000F900F90DF91CF911F910F91FF90EF90E5
:101F90000895EF92FF920F931F93CF93DF93CDB7E6
:101FA000DEB727970FB6F894DEBF0FBECDBF7C011A
:101FB000CB014AE050E08E010F5F1F4FB8010E9435
:101FC0001B1DF80101900020E9F7AF0141505109B4
:101FD000401B510BB801C7010E94460F27960FB650
:101FE000F894DEBF0FBECDBFDF91CF911F910F914F
:101FF000FF90EF900895EF92FF920F931F93CF936E
:10200000DF9300D000D000D0CDB7DEB77C01CB018C
:102010004AE050E08E010F5F1F4FB8010E94AA1DD9
:10202000F80101900020E9F7AF0141505109401B30
:10203000510BB801C7010E94460F26960FB6F894BF
:10204000DEBF0FBECDBFDF91CF911F910F91FF90EB
:10205000EF900895EF92FF920F931F93CF93DF932A
:10206000CDB7DEB72C970FB6F894DEBF0FBECDBF4D
:102070007C01CB01BA012AE030E08E010F5F1F4FD7
:10208000A8010E943C1DF80101900020E9F7AF0172
:1020900041505109401B510BB801C7010E94460F26
:1020A0002C960FB6F894DEBF0FBECDBFDF91CF9157
:1020B0001F910F91FF90EF900895EF92FF920F9371
:1020C0001F93CF93DF93CDB7DEB72B970FB6F8945E
:1020D000DEBF0FBECDBF7C01CB01BA012AE030E0EC
:1020E0008E010F5F1F4FA8010E94851DF80101900E
:1020F0000020E9F7AF0141505109401B510BB801D5
:10210000C7010E94460F2B960FB6F894DEBF0FBE94
:10211000CDBFDF91CF911F910F91FF90EF90089568
:10212000CF93DF93D82FC92FFB0144815581608164
:1021300071810E94460F811104C08D2F9C2F0E9437
:10214000850D8D2F9C2FDF91CF910895CF93DF9335
:10215000D82FC92F6115710569F0DB010D900020A2
:10216000E9F7AD0141505109461B570B0E94460F3C
:10217000811104C08D2F9C2F0E94850D8D2F9C2FC7
:10218000DF91CF910895CF93DF93D82FC92F0E946D
:10219000890F811104C08D2F9C2F0E94850D8D2FDA
:1021A0009C2FDF91CF910895CF93DF93D82FC92F24
:1021B0000E949C0F811104C08D2F9C2F0E94850DC1
:1021C0008D2F9C2FDF91CF910895CF93DF93D82F40
:1021D000C92F0E94C90F811104C08D2F9C2F0E940E
:1021E000850D8D2F9C2FDF91CF910895CF93DF9395
:1021F000D82FC92F0E94FB0F811104C08D2F9C2F57
:102200000E94850D8D2F9C2FDF91CF910895CF9344
:10221000DF93D82FC92F0E942A10811104C08D2F5F
:102220009C2F0E94850D8D2F9C2FDF91CF910895BB
:10223000CF93DF93D82FC92F0E945D10811104C066
:102240008D2F9C2F0E94850D8D2F9C2FDF91CF917C
:102250000895CF93DF93DC01ED91FC91EB01A88110
:10226000B981309711F01097C9F4109759F0EB012C
:102270002C813D81232B31F02C9130E0319521953B
:10228000310914C0309781F0DC0114968D919C9136
:102290001597892B49F0208130E008C0BD01CF019E
:1022A000DF91CF910C94C91C20E030E0C901DF918F
:1022B000CF910895FC0144815581FB012481358132
:1022C0004217530729F40E94291121E0892B09F0B4
:1022D00020E0822F0895DC0114962D913C911597F2
:1022E000232B39F481E06115710511F0FB0108C061
:1022F0000895DC01ED91FC916115710529F481E0EF
:102300009081992349F007C0CF010E94C91C9C010C
:1023100081E0232B09F080E008950E942911892F84
:10232000881F8827881F08950E94291121E0181608
:1023300019060CF020E0822F08950E94291121E057
:10234000181619060CF420E0822F08950E94291116
:10235000892F8095881F8827881F0895EF92FF9204
:102360000F931F93CF93DF938617970729F1FC01F3
:1023700024813581FB014481558124173507F1F40F
:10238000232BD1F0C081D181FC01008111810FC0CC
:10239000992787FD90950E94931C7C01899199272C
:1023A00087FD90950E94931CE816F90639F4F80110
:1023B00081918F018111ECCF81E001C080E0DF913C
:1023C000CF911F910F91FF90EF900895FA01DB01DB
:1023D00014964D915C911597DC0114962D913C91CA
:1023E0001597241B350B2E173F0790F08D919C916C
:1023F000009771F0DB016D917C916115710541F0E1
:102400008E0F9F1F0E94D91C9C0181E0232B09F095
:1024100080E00895FC0144815581FB0124813581D0
:102420004217530720F040E050E00C94E61180E0A2
:102430000895FC0184819581DB0114964D915C9196
:10244000159784179507A0F020813181211531055A
:1024500079F06D917C916115710551F0841B950B9C
:10246000820F931F0E94C91C9C0181E0232B09F05D
:1024700080E00895DC0114962D913C911597621728
:10248000730728F4ED91FC91E60FF71F4083089540
:10249000FC01248135816217730720F480819181CA
:1024A000009729F410929A036AE973E002C0680F5A
:1024B000791FCB010895FC012481358162177307D0
:1024C00048F480819181009729F0FC01E60FF71F05
:1024D0008081089580E008950C945B120F931F9300
:1024E000CF93DF93EB0141155105E9F02097D9F027
:1024F000FC01048115812017310708F013C04150F9
:102500005109021B130B4017510708F48A01FC0103
:1025100060817181620F731FA801CE010E94E71CC8
:10252000C00FD11F1882DF91CF911F910F91089595
:10253000CF93DF93FC01848195814817590780F47C
:10254000C081D181772767FD7095CE01840F951FDB
:102550000E94BE1C009721F09C012C1B3D0B02C069
:102560002FEF3FEFC901DF91CF91089540E050E098
:102570000C949812CF93DF93FC01848195814817C6
:10258000590780F4C081D181FB0160817181CE0146
:10259000840F951F0E94011D009721F09C012C1BA8
:1025A0003D0B02C02FEF3FEFC901DF91CF9108959E
:1025B00040E050E00C94BA12DF92EF92FF920F933A
:1025C0001F93CF93DF93EC018C819D8148175907AE
:1025D00018F02FEF3FEF1DC08A010F5F1F4FE881FA
:1025E000F981E00FF11FD0801082E880F980772711
:1025F00067FD7095C7010E94F61CF701E00FF11FFF
:10260000D082009731F328813981AC01421B530BF2
:102610009A01C901DF91CF911F910F91FF90EF9027
:10262000DF900895FC0144815581415051090C947B
:10263000DC12AF92BF92CF92DF92EF92FF920F9394
:102640001F93CF93DF936B018A01FB014481558176
:102650004115510569F1FC012481358121153105B0
:1026600039F12417350720F10217130718F08901F3
:1026700001501109FC01E080F180C701CFEFDFEFCD
:102680005701A00EB11E10C0F601608171810E9439
:10269000011D009779F09C012E193F0902171307BD
:1026A00008F49E010196E901A816B90668F702C070
:1026B000CFEFDFEFCE01DF91CF911F910F91FF9010
:1026C000EF90DF90CF90BF90AF900895FC014481D0
:1026D0005581FB0124813581421B530B0C94191346
:1026E000BF92CF92DF92EF92FF920F931F93CF93FF
:1026F000DF936C017B01EA0189012417350720F47F
:102700008D2FE901042F182F67E371E0C6010E94A5
:10271000F10DD70114968D919C9115978C179D07FB
:10272000C8F08017910708F48C01D701ED91FC9156
:102730001197E00FF11FB08010826D917C916C0FAA
:102740007D1FC6010E942F0ED701ED91FC91E00F75
:10275000F11FB082C601DF91CF911F910F91FF90C1
:10276000EF90DF90CF90BF900895CF93DF93EC016F
:10277000FB01248135810E947013CE01DF91CF913E
:102780000895DC01ED91FC91309729F408958613AA
:1027900001C04083319680818111F9CF08952F9235
:1027A0003F924F925F926F927F928F929F92AF92E1
:1027B000BF92CF92DF92EF92FF920F931F93CF932E
:1027C000DF938C015B017A01DC0114964D905C90E3
:1027D00015974114510409F4E1C0FB016480758030
:1027E0006114710409F4DAC0DA011496CD90DC901A
:1027F0001597C618D708FC01C081D181C114D10436
:10280000E1F411C0D7016C9111967C911197149647
:102810004D915C911597C8010E94A31CF701C481DA
:10282000D581C00FD11FD5016D917C91CE010E9441
:10283000011D8C01009731F7B1C0D7FE02C04E01D7
:102840002EC0FB012080318042014DC032016C1A44
:102850007D0AA301BE01C4010E94A31C680C791C5F
:10286000D7016C9111967C91119714964D915C91C2
:102870001597C3010E94A31CF70184809580860CE4
:10288000971CD5011496CD91DC911597C40DD51DDB
:10289000F801848195818C0D9D1D95838483D501DC
:1028A0006D917C91CE010E94011D2C01009771F663
:1028B000BE01C401DF91CF911F910F91FF90EF9066
:1028C000DF90CF90BF90AF909F908F907F906F9050
:1028D0005F904F903F902F900C94D21CEC01C60D4E
:1028E000D71D8C0C9D1CB101CE010E94011D0097CB
:1028F000A9F78414950409F451C0F80182819381E9
:102900008815990598F4B401C8010E94970D882391
:1029100009F444C00BC097FD41C0AC01B501C8012A
:102920000E941913EC0197FF07C038C0D801149614
:102930008D919C91159730C0F80180819181D501CE
:1029400014962D913C9115972C0F3D1F820F931FCC
:1029500044815581421B530BBC018C0D9D1D0E946F
:10296000AC1CF801848195818C0D9D1D9583848319
:102970000190F081E02DE80FF91F1082D8012D9110
:102980003C912C0F3D1FF70160817181448155817D
:10299000C9010E94A31CCE010197BDCFDF91CF9149
:1029A0001F910F91FF90EF90DF90CF90BF90AF906D
:1029B0009F908F907F906F905F904F903F902F905F
:1029C0000895CF93DF93FC01C081D181209739F422
:1029D00009C0992787FD90950E94931C899388814F
:1029E0008111F7CFDF91CF910895CF93DF93FC0151
:1029F000C081D181209739F409C0992787FD90952E
:102A00000E949B1C899388818111F7CFDF91CF9120
:102A10000895AF92BF92CF92DF92EF92FF920F9301
:102A20001F93CF93DF936C01DC01ED90FC90119725
:102A3000E114F10409F447C014960D911C91159707
:102A40000115110509F43FC05701E501BFEFAB1AAD
:102A5000BB0A8881992787FD90950E948B1C892B42
:102A6000A1F7015011090E0D1F1DF8018081992752
:102A700087FD90950E948B1C892B69F40F5F1F4F77
:102A80000C1B1D0BD60115961C930E931497EC1678
:102A9000FD0650F404C00C171D0790F4EFCFA801F9
:102AA000BE01C7010E94A31CD601ED91FC911197B4
:102AB00014968D919C911597E80FF91F108203C011
:102AC00001501109D2CFDF91CF911F910F91FF904B
:102AD000EF90DF90CF90BF90AF900895FC01808180
:102AE0009181009711F00C94641C60E070E080E02C
:102AF00090E008950E9455160E943E05C7EDD7E06C
:102B00000E9416062097E1F30E94D707F9CF0C9494
:102B1000D7170C94D7170C9472180C94721821E0E4
:102B200030E0FC018081882311F020E030E0C90111
:102B3000089521E0FC0120830895089508951F92CF
:102B40000F920FB60F9211242F933F938F939F9361
:102B5000AF93BF9380919B0390919C03A0919D03A1
:102B6000B0919E033091A303232F2D5F2D3720F4C6
:102B70000196A11DB11D05C0232F2A570296A11D44
:102B8000B11D2093A30380939B0390939C03A09378
:102B90009D03B0939E0380919F039091A003A09109
:102BA000A103B091A2030196A11DB11D80939F03C3
:102BB0009093A003A093A103B093A203BF91AF9100
:102BC0009F918F913F912F910F900FBE0F901F906B
:102BD00018950F931F938FB7F89400919B03109152
:102BE0009C0320919D0330919E038FBFB801C901C2
:102BF0001F910F9108950F931F939FB7F894009121
:102C00009F031091A0032091A1033091A20386B5E8
:102C1000A89B06C08F3F21F00F5F1F4F2F4F3F4FE4
:102C20009FBF322F212F102F0027080F111D211DAC
:102C3000311D42E0000F111F221F331F4A95D1F7AB
:102C4000B801C9011F910F910895CF92DF92EF92C1
:102C5000FF92CF93DF936B017C010E94FB15EB0188
:102C60000EC00E94FB156C1B7D0B683E734038F054
:102C700081E0C81AD108E108F108C851DC4FC1143D
:102C8000D104E104F10469F7DF91CF91FF90EF9057
:102C9000DF90CF900895019739F0880F991F880F22
:102CA000991F02970197F1F70895789484B582608F
:102CB00084BD84B5816084BD85B5826085BD85B5E0
:102CC000816085BDEEE6F0E0808181608083E1E88F
:102CD000F0E01082808182608083808181608083C7
:102CE000E0E8F0E0808181608083E1EBF0E08081CA
:102CF00084608083E0EBF0E0808181608083EAE79C
:102D0000F0E0808184608083808182608083808124
:102D1000816080838081806880831092C1000895E3
:102D20008093040108958E3008F08E5087702091B2
:102D3000040140E4249F90011124822B80937C00A5
:102D400080917A00806480937A0080917A0086FD79
:102D5000FCCF2091780030917900932F80E0AC0176
:102D6000422B9A01C90108951F93CF93DF93182F27
:102D7000EB0161E00E943F17209711F460E004C06E
:102D8000CF3FD10539F461E0812FDF91CF911F91C1
:102D90000C947717E12FF0E0EC5FFE4FE491E33005
:102DA000B9F028F4E13051F0E230B1F50CC0E63072
:102DB00019F1E73049F1E43079F514C084B5806841
:102DC00084BDC7BD2EC084B5806284BDC8BD29C086
:102DD00080918000806880938000D0938900C093A8
:102DE00088001FC080918000806280938000D09313
:102DF0008B00C0938A0015C08091B00080688093DA
:102E0000B000C093B3000DC08091B0008062809389
:102E1000B000C093B40005C0C038D1050CF0B3CFEA
:102E2000ADCFDF91CF911F910895833069F028F4E1
:102E30008130A1F0823011F514C08630B1F08730B6
:102E4000C1F08430D9F404C0809180008F7703C032
:102E5000809180008F7D80938000089584B58F7766
:102E600002C084B58F7D84BD08958091B0008F77B6
:102E700003C08091B0008F7D8093B0000895CF9300
:102E8000DF9390E0FC01E85EFE4F4491FC01E45DBD
:102E9000FE4F8491882341F190E0880F991FFC0137
:102EA000EC5AFE4F25913491D901865B9E4FFC016F
:102EB00085919491C82FD92F9FB7F8948C91611167
:102EC00006C0409584238C938881842308C0623097
:102ED00041F4242F209582238C938881842B88832E
:102EE00002C0842B8C939FBFDF91CF9108950F93E5
:102EF0001F93CF93DF931F92CDB7DEB7282F30E01B
:102F0000F901EC5FFE4F8491F901E85EFE4F1491E8
:102F1000F901E45DFE4F04910023D1F0882321F0F4
:102F200069830E9415176981E02FF0E0EE0FFF1F03
:102F3000E65BFE4F85919491DC019FB7F8948C91EC
:102F4000611103C01095812301C0812B8C939FBF19
:102F50000F90DF91CF911F910F910895CF93DF9341
:102F6000282F30E0F901EC5FFE4F8491F901E85E13
:102F7000FE4FD491F901E45DFE4FC491CC2389F05A
:102F800081110E941517EC2FF0E0EE0FFF1FE05C9F
:102F9000FE4F85919491DC018C918D2321E030E0EE
:102FA00011F420E030E0C901DF91CF9108950F9333
:102FB0001F93CF93DF938230910510F482E090E06D
:102FC000E091A603F091A70320E030E0C0E0D0E05C
:102FD00023C04081518148175907A8F04817590765
:102FE00061F482819381209719F09B838A832EC09C
:102FF0009093A7038093A60329C02115310529F0DA
:103000004217530710F0A90102C0BE01DF0102817F
:103010001381EF019A01F8013097D9F62115310596
:1030200009F1281B390B2430310590F412968D914B
:103030009C9113976115710521F0FB0193838283A5
:1030400004C09093A7038093A603FD01329644C069
:10305000FD01E20FF31F81939193225031092D93CB
:103060003C933AC02091A4033091A503232B41F453
:1030700020910701309108013093A5032093A40308
:1030800020910501309106012115310541F42DB73C
:103090003EB74091090150910A01241B350BE09184
:1030A000A403F091A503E217F307A0F42E1B3F0B36
:1030B0002817390778F0AC014E5F5F4F24173507AA
:1030C00048F04E0F5F1F5093A5034093A4038193D4
:1030D000919302C0E0E0F0E0CF01DF91CF911F912A
:1030E0000F910895EF92FF920F931F93CF93DF9369
:1030F000009709F48FC0DC01129713961C921E9260
:103100001297E090A603F090A703E114F10489F46C
:103110002D913C911197280F391F8091A403909114
:10312000A5038217930789F5B093A503A093A40381
:1031300071C0E70120E030E001C0EA01CA17DB07F7
:1031400038F44A815B819E0141155105B1F722C0D7
:10315000BC0162507109FB01D383C28300811181DC
:10316000AC01400F511F4C175D0761F44881598134
:10317000400F511F4E5F5F4F518340834A815B81F7
:10318000538342832115310529F4B093A703A093FB
:10319000A60340C0F901B383A283E9016991799143
:1031A000C60FD71FAC17BD0779F4DC015E914E91B5
:1031B000460F571F4E5F5F4F5183408312968D918C
:1031C0009C91139793838283A0E0B0E002C0D70163
:1031D0007C01F701828193810097C9F7C7010296AC
:1031E00020813181820F931F2091A4033091A50388
:1031F0002817390779F4109729F41092A703109231
:10320000A60304C013961C921E921297F092A50377
:10321000E092A403DF91CF911F910F91FF90EF9067
:1032200008958F929F92AF92BF92CF92DF92EF92CA
:10323000FF920F931F93CF93DF93EC01009779F4E4
:10324000CB01DF91CF911F910F91FF90EF90DF9015
:10325000CF90BF90AF909F908F900C94D717DC01C8
:10326000A60FB71FFC013297AE17BF0718F4C0E0D6
:10327000D0E0ADC00081118106171707B0F005300E
:10328000110508F4A4C0C80104978617970708F42D
:103290009EC002501109061B170B0D931D937183DD
:1032A0006083CD010E94721892C07B01E01AF10A7E
:1032B0005C01A00EB11EE091A603F091A703812C42
:1032C000912C80E090E04CC0EA15FB05F1F54081BF
:1032D00051816A0122E0C20ED11CCE14DF04A8F194
:1032E0009A012E193F097901690132E0C30ED11C00
:1032F0002EEFA22EBB24BA94AC0EBD1E25E0C21642
:10330000D10478F04281538113965C934E931297C7
:103310001196FC92EE92F501718360833A2F2B2F68
:1033200009C00E5F1F4F040F151FD5010D931C938D
:1033300032812381009721F0FC013283238347C02F
:103340003093A6032093A70342C080819181881601
:10335000990608F44C0152814381CF01E52FF42FE7
:10336000309709F0B1CF8091A4039091A5038A15FD
:103370009B05F1F486169706D8F48091050190918B
:103380000601009741F48DB79EB720910901309155
:103390000A01821B930BA817B90708F068CFB093F6
:1033A000A503A093A403FE013297718360830FC02D
:1033B000CB010E94D7177C01009709F458CFA801D0
:1033C000BE010E94A31CCE010E947218E701CE012B
:1033D000DF91CF911F910F91FF90EF90DF90CF90F1
:1033E000BF90AF909F908F9008955058BB27AA2709
:1033F0000ED075C166D130F06BD120F031F49F3F13
:1034000011F41EF45BC10EF4E095E7FB51C1E92F06
:1034100077D180F3BA17620773078407950718F00E
:1034200071F49EF58FC10EF4E0950B2EBA2FA02DEE
:103430000B01B90190010C01CA01A0011124FF2761
:10344000591B99F0593F50F4503E68F11A16F0405C
:10345000A22F232F342F4427585FF3CF469537955B
:103460002795A795F0405395C9F77EF41F16BA0B20
:10347000620B730B840BBAF09150A1F0FF0FBB1FCE
:10348000661F771F881FC2F70EC0BA0F621F731F17
:10349000841F48F4879577956795B795F7959E3F74
:1034A00008F0B3CF9395880F08F09927EE0F979502
:1034B00087950895D9D008F481E008950CD00FC104
:1034C00007D140F0FED030F021F45F3F19F0F0C09A
:1034D000511139C1F3C014D198F39923C9F355237D
:1034E000B1F3951B550BBB27AA27621773078407F7
:1034F00038F09F5F5F4F220F331F441FAA1FA9F3AD
:1035000033D00E2E3AF0E0E830D091505040E6959E
:10351000001CCAF729D0FE2F27D0660F771F881FFF
:10352000BB1F261737074807AB07B0E809F0BB0BEE
:10353000802DBF01FF2793585F4F2AF09E3F510512
:1035400068F0B6C000C15F3FECF3983EDCF38695AF
:1035500077956795B795F7959F5FC9F7880F911D88
:103560009695879597F90895E1E0660F771F881F74
:10357000BB1F621773078407BA0720F0621B730B27
:10358000840BBA0BEE1F88F7E095089504D0689479
:10359000B111D9C00895BCD088F09F5790F0B92FD1
:1035A0009927B751A0F0D1F0660F771F881F991F98
:1035B0001AF0BA95C9F712C0B13081F0C3D0B1E0AA
:1035C0000895C0C0672F782F8827B85F39F0B93FBA
:1035D000CCF3869577956795B395D9F73EF490959A
:1035E0008095709561957F4F8F4F9F4F0895E89418
:1035F00009C097FB3EF490958095709561957F4F3B
:103600008F4F9F4F9923A9F0F92F96E9BB279395E8
:10361000F695879577956795B795F111F8CFFAF4F8
:10362000BB0F11F460FF1BC06F5F7F4F8F4F9F4F29
:1036300016C0882311F096E911C0772321F09EE887
:10364000872F762F05C0662371F096E8862F70E0ED
:1036500060E02AF09A95660F771F881FDAF7880FC7
:103660009695879597F90895990F0008550FAA0B1D
:10367000E0E8FEEF16161706E807F907C0F0121685
:103680001306E407F50798F0621B730B840B950B88
:1036900039F40A2661F0232B242B252B21F40895DD
:1036A0000A2609F4A140A6958FEF811D811D08957A
:1036B00097F99F6780E870E060E008959FEF80ECE5
:1036C000089500240A941616170618060906089588
:1036D00000240A9412161306140605060895092EEE
:1036E0000394000C11F4882352F0BB0F40F4BF2B5D
:1036F00011F460FF04C06F5F7F4F8F4F9F4F08959D
:1037000057FD9058440F551F59F05F3F71F0479592
:10371000880F97FB991F61F09F3F79F08795089577
:10372000121613061406551FF2CF4695F1DF08C096
:10373000161617061806991FF1CF869571056105B3
:1037400008940895E894BB2766277727CB0197F95B
:1037500008958ADF08F48FEF08950BD0C0CFB1DF52
:1037600028F0B6DF18F0952309F0A2CFA7CF1124D7
:10377000EACFC6DFA0F3959FD1F3950F50E0551F18
:10378000629FF001729FBB27F00DB11D639FAA27B6
:10379000F00DB11DAA1F649F6627B00DA11D661F05
:1037A000829F2227B00DA11D621F739FB00DA11D26
:1037B000621F839FA00D611D221F749F3327A00DE0
:1037C000611D231F849F600D211D822F762F6A2F7C
:1037D00011249F5750408AF0E1F088234AF0EE0F01
:1037E000FF1FBB1F661F771F881F91505040A9F70E
:1037F0009E3F510570F05CCFA6CF5F3FECF3983E43
:10380000DCF3869577956795B795F795E7959F5F74
:10381000C1F7FE2B880F911D9695879597F908950E
:1038200023DF880B990B089597FB072E16F400945D
:1038300007D077FD09D00E944A1C07FC05D03EF452
:10384000909581959F4F0895709561957F4F08954C
:10385000A1E21A2EAA1BBB1BFD010DC0AA1FBB1F94
:10386000EE1FFF1FA217B307E407F50720F0A21B06
:10387000B30BE40BF50B661F771F881F991F1A9473
:1038800069F760957095809590959B01AC01BD019D
:10389000CF010895AA1BBB1B51E107C0AA1FBB1F84
:1038A000A617B70710F0A61BB70B881F991F5A95CC
:1038B000A9F780959095BC01CD010895EE0FFF1FEB
:1038C0000590F491E02D09941F93FC019927882716
:1038D000BC01E89411911032E9F3193010F01E3058
:1038E000C8F31B3251F01D3249F4689406C00E949F
:1038F000701D610F711D811D911D119110531A30A2
:10390000B0F33EF490958095709561957F4F8F4F01
:103910009F4F1F910895911133C1803219F0895042
:103920008550D0F708959111089581548A5108F473
:10393000805E855A08959111089581568A5108F440
:10394000805285580895FB01DC0102C001900D9260
:1039500041505040D8F708956817790768F4FB0183
:10396000DC01E40FF51FA40FB51F02C002900E92F8
:1039700041505040D8F708950C94A31CFC0181914C
:10398000861721F08823D9F7992708953197CF0119
:103990000895FB01DC018D91019080190110D9F38C
:1039A000990B0895FB01DC0101900D920020E1F7D5
:1039B0000895FB01DC014150504030F08D910190A1
:1039C000801919F40020B9F7881B990B0895FB01A1
:1039D000DC014150504048F001900D920020C9F7A1
:1039E00001C01D9241505040E0F70895FC0181E074
:1039F00090E00190061609F4CF010020D1F701975D
:103A00000895FB0151915523A9F0BF01DC014D91AF
:103A100045174111E1F759F4CD010190002049F01B
:103A20004D9140154111C9F3FB014111EFCF81E0E8
:103A300090E001970895FB019F01E8944230C4F0A3
:103A40004532B4F44A3029F497FB1EF490958195E1
:103A50009F4F642F77270E944A1C805D8A330CF0A9
:103A6000895D8193CB010097A1F716F45DE2519334
:103A70001082C9010C94C31DFA01CF93FF93EF93F9
:103A8000223044F1253234F5C22FE894CA3049F48B
:103A900097FB3EF490958095709561957F4F8F4F81
:103AA0009F4F2C2F332744275527FF93EF930E94D6
:103AB000281CEF91FF91605D6A330CF0695D6193A2
:103AC000B901CA01605070408040904051F716F42F
:103AD000CDE2C19310828F919F91CF910C94C31D21
:103AE000592F482F372F262F660F771F881F991FB2
:103AF000660F771F881F991F620F731F841F951F02
:103B0000660F771F881F991F0895FA01CF93FF93BF
:103B1000EF932230CCF02532BCF4C22F2C2F332768
:103B200044275527FF93EF930E94281CEF91FF91A4
:103B3000605D6A330CF0695D6193B901CA01605040
:103B400070408040904051F710828F919F91CF91AB
:103B50000C94C31DFB019F01423074F0453264F4A4
:103B6000642F77270E944A1C805D8A330CF0895DA0
:103B70008193CB010097A1F71082C9010C94C31D5A
:103B8000992788270895DC01FC01672F719177231D
:103B9000E1F7329704C07C916D9370836291AE1708
:103BA000BF07C8F3089511E0C2E6D1E004C0FE01EA
:103BB0000E94601C2296C436D107C9F7F894FFCF43
:103BC000E8030000010000A803800000000000DC02
:103BD00001150A2901DC00FF001A01000000009E07
:103BE00015150A9E159E159E159E154D6F746F72C4
:103BF0002050574D413A20002C4D6F746F72205069
:103C0000574D423A0050574D2073657475702044EB
:103C10004F4E452E2E2E004144432073657475701F
:103C200020444F4E452E2E2E0050726F6A65746FE1
:103C300020726F62C3B4207573616E646F20416E31
:103C400064726F6964204A6F79737469636B204290
:103C50005420636F6D6D616E6465722056332E3033
:103C60000053657475702E2E2E00456E746572209B
:103C700050574D20696E69742E2E2E00456E746566
:103C8000722041444320696E69742E2E2E004275C5
:103C900074746F6E5F313A204F4E004155544F207F
:103CA0006D6F6465204F4E2E2E2E00427574746F1A
:103CB0006E5F313A204F4646004155544F206D6F9C
:103CC0006465204F46462E2E2E00427574746F6E2A
:103CD0005F323A204F4E00427574746F6E5F323A15
:103CE000204F464600427574746F6E5F333A204F22
:103CF0004E00427574746F6E5F343A204F4E004A26
:103D00006F79737469636B20646174613A20583A07
:103D100020002C20593A002A2A2A2A0000000000FC
:103D20005F07150A01073007140754076E616E001C
:103D3000696E66006F766600000000009E15150A29
:00000001FF
